S01100005155455354494F4E332E7372656368
S11300000C9448000C9452000C9452000C9452002E
S11300100C9452000C9452000C9452000C94520014
S11300200C9452000C9452000C9452000C94520004
S11300300C9452000C9452000C9452000C945200F4
S11300400C9452000C9452000C9452000C945200E4
S11300500C9452000C9452000C9452000C945200D4
S11300600C9452000C9452000C9452000C945200C4
S11300700C9452000C9452000C9452000C945200B4
S11300800C9452000C9452000C9452000C945200A4
S113009011241FBECFEFCDBFDFE3DEBF0E945E00A1
S11300A00C9441060C940000CF93DF93CDB7DEB7D8
S11300B00E94C1020000DF91CF910895CF93DF9396
S11300C0CDB7DEB72697CDBFDEBF0E94540084E6CD
S11300D090E089839A8388EC90E08B839C838CE204
S11300E091E08D839E834D815E812B813C8189814A
S11300F09A81B9010E943303F6CFCF93DF93CDB732
S1130100DEB780E0DF91CF910895CF93DF93CDB731
S1130110DEB780E0DF91CF910895CF93DF93CDB721
S1130120DEB780E0DF91CF910895CF93DF9300D0C5
S1130130CDB7DEB789836A838A81882F90E08130C6
S11301409105E1F08230910571F1892B09F03BC0F2
S113015020E030E080E090E0FC018081682F89811C
S1130160482F50E081E090E002C0880F991F4A9523
S1130170E2F780958623F901808325C020E030E0F2
S113018080E090E0FC018081682F8981482F50E055
S113019081E090E002C0880F991F4A95E2F7862B10
S11301A0F901808310C08981882F90E0805F9B4F84
S11301B02981222F30E0205F3B4FF9012081286004
S11301C0FC012083000000000F900F90DF91CF917D
S11301D00895CF93DF9300D0CDB7DEB789836A83C8
S11301E08A818823A9F020E030E080E090E0FC01DF
S11301F08181682F8981482F50E081E090E002C01E
S1130200880F991F4A95E2F7862BF901818315C05F
S113021020E030E080E090E0FC018181682F89815A
S1130220482F50E081E090E002C0880F991F4A9562
S1130230E2F780958623F901818300000F900F90E7
S1130240DF91CF910895CF93DF9300D0CDB7DEB780
S113025089836A838A81882F90E081309105E1F057
S11302608230910571F1892B09F03BC08CE090E05C
S11302702CE030E0F9012081622F2981422F50E0E7
S113028021E030E002C0220F331F4A95E2F72095A7
S11302902623FC01208325C08CE090E02CE030E094
S11302A0F9012081622F2981422F50E021E030E0C2
S11302B002C0220F331F4A95E2F7262BFC0120834C
S11302C010C08981882F90E080599B4F2981222F6B
S11302D030E020593B4FF90120812860FC01208344
S11302E0000000000F900F90DF91CF910895CF93FD
S11302F0DF9300D0CDB7DEB789836A838A818823F0
S1130300A9F08CE090E02CE030E0F9012181622F2B
S11303102981422F50E021E030E002C0220F331F38
S11303204A95E2F7262BFC01218315C08CE090E06E
S11303302CE030E0F9012181622F2981422F50E025
S113034021E030E002C0220F331F4A95E2F72095E6
S11303502623FC01218300000F900F90DF91CF91A1
S11303600895CF93DF931F92CDB7DEB78983698158
S113037083E00E94950000000F90DF91CF910895D3
S1130380CF93DF931F92CDB7DEB78983698183E072
S11303900E94E90000000F90DF91CF910895CF9360
S11303A0DF931F92CDB7DEB78983698180E00E9415
S11303B0230100000F90DF91CF910895CF93DF9335
S11303C01F92CDB7DEB78983698180E00E947701EF
S11303D000000F90DF91CF910895CF93DF931F9288
S11303E0CDB7DEB78983698181E00E9423010000D3
S11303F00F90DF91CF910895CF93DF931F92CDB7E4
S1130400DEB78983698181E00E94770100000F9043
S1130410DF91CF910895CF93DF931F92CDB7DEB7CD
S11304208983698182E00E94230100000F90DF919B
S1130430CF910895CF93DF931F92CDB7DEB7898311
S1130440698182E00E94770100000F90DF91CF91D3
S11304500895CF93DF93CDB7DEB72697CDBFDEBF28
S1130460198212C08981882F90E0805F9B4F298177
S1130470222F30E0205F3B4FF90120812860FC01EE
S1130480208389818F5F89838981883058F31A8218
S113049012C08A81882F90E0805D9B4F2A81222F91
S11304A030E0205D3B4FF90120812860FC0120836E
S11304B08A818F5F8A838A81883058F31B8212C0B5
S11304C08B81882F90E0805B9B4F2B81222F30E023
S11304D0205B3B4FF90120812860FC0120838B8144
S11304E08F5F8B838B81883058F31C8212C08C8180
S11304F0882F90E080599B4F2C81222F30E0205987
S11305003B4FF90120812860FC0120838C818F5F9F
S11305108C838C81883058F31D8212C08D81882F82
S113052090E080579B4F2D81222F30E020573B4F86
S1130530F90120812860FC0120838D818F5F8D83E8
S11305408D81883058F31E8212C08E81882F90E0EE
S113055080559B4F2E81222F30E020553B4FF901CF
S113056020812860FC0120838E818F5F8E838E81A1
S1130570883058F300002696CDBFDEBFDF91CF91BF
S11305800895CF93DF93CDB7DEB70E94290280E0B0
S11305900E94C00181E00E94B10180E00E94DE015E
S11305A081E00E94CF0180E00E94FC0181E00E9472
S11305B0ED0180E00E941A0281E00E940B020E9479
S11305C085000E948D000E94EB020E947D000000C5
S11305D0DF91CF910895CF93DF93CDB7DEB780E05D
S11305E0DF91CF910895CF93DF931F92CDB7DEB7FC
S11305F089838CE090E02CE030E0F9012281622FC5
S11306002981422F50E021E030E002C0220F331F45
S11306104A95E2F7262BFC01228300000F90DF911C
S1130620CF910895CF93DF93CDB7DEB780E00E94DA
S1130630F3020000DF91CF910895CF93DF93CDB7FC
S1130640DEB781E00E94F3020000DF91CF910895AC
S1130650CF93DF93CDB7DEB782E00E94F3020000B0
S1130660DF91CF910895CF93DF93CDB7DEB7E097B5
S1130670CDBFDEBF8BA79CA76DA77EA74FA758ABA6
S11306802BA53CA58DA59EA5281739070CF09AC16A
S11306902BA53CA58FA598A9281739070CF092C162
S11306A02DA53EA58FA598A9281739070CF08AC156
S11306B00E9412030E941D030E9428038BA59CA57F
S11306C0092E000CAA0BBB0BBC01CD010E941F0517
S11306D0DC01CB0189839A83AB83BC8324E535E5B4
S11306E040E554E469817A818B819C810E94AC0548
S11306F0DC01CB0189A39AA3ABA3BCA320E030E027
S113070040E85FE369A17AA18BA19CA10E94E9045E
S113071088232CF481E090E08DA39EA33FC020E0C9
S11307203FEF4FE757E469A17AA18BA19CA10E94F6
S1130730A70518164CF520E030E040E251E4698149
S11307407A818B819C810E94AC05DC01CB01BC01C8
S1130750CD010E94EE04DC01CB018DA39EA30FC04A
S113076083E590E08FA398A78FA198A50197F1F74F
S11307708FA398A78DA19EA101978DA39EA38DA160
S11307809EA1892B69F714C069A17AA18BA19CA1B0
S11307900E94EE04DC01CB018DA39EA38DA19EA13A
S11307A089A79AA789A59AA50197F1F789A79AA776
S11307B00E9412032DA53EA58BA59CA5A901481B4B
S11307C0590BCA01092E000CAA0BBB0BBC01CD01AD
S11307D00E941F05DC01CB018D839E83AF83B88704
S11307E024E535E540E554E46D817E818F8198856B
S11307F00E94AC05DC01CB018F8B988FA98FBA8F37
S113080020E030E040E85FE36F89788D898D9A8D30
S11308100E94E90488232CF481E090E08B8F9C8F64
S11308203FC020E03FEF4FE757E46F89788D898D13
S11308309A8D0E94A70518164CF520E030E040E29E
S113084051E46D817E818F8198850E94AC05DC0125
S1130850CB01BC01CD010E94EE04DC01CB018B8FE6
S11308609C8F0FC083E590E08D8F9E8F8D8D9E8D24
S11308700197F1F78D8F9E8F8B8D9C8D01978B8FB8
S11308809C8F8B8D9C8D892B69F714C06F89788D13
S1130890898D9A8D0E94EE04DC01CB018B8F9C8F95
S11308A08B8D9C8D8F8F98A38F8D98A10197F1F7D5
S11308B08F8F98A30E941D032FA538A98DA59EA5EF
S11308C0281B390B8BA59CA5A901481B590BCA01F0
S11308D0092E000CAA0BBB0BBC01CD010E941F0505
S11308E0DC01CB0189879A87AB87BC8724E535E592
S11308F040E554E469857A858B859C850E94AC0526
S1130900DC01CB018D879E87AF87B88B20E030E078
S113091040E85FE36D857E858F8598890E94E904B0
S113092088232CF481E090E0898B9A8B3FC020E0EF
S11309303FEF4FE757E46D857E858F8598890E9448
S1130940A70518164CF520E030E040E251E4698533
S11309507A858B859C850E94AC05DC01CB01BC01AA
S1130960CD010E94EE04DC01CB01898B9A8B0FC070
S113097083E590E08B8B9C8B8B899C890197F1F7A5
S11309808B8B9C8B89899A890197898B9A8B89890E
S11309909A89892B69F714C06D857E858F8598891E
S11309A00E94EE04DC01CB01898B9A8B89899A8998
S11309B08D8B9E8B8D899E890197F1F78D8B9E8BF4
S11309C00E9428030000E096CDBFDEBFDF91CF91E7
S11309D008950E945A0508F481E008950E9486054E
S11309E088F09F5798F0B92F9927B751B0F0E1F0EC
S11309F0660F771F881F991F1AF0BA95C9F714C09C
S1130A00B13091F00E94A005B1E008950C94A005C6
S1130A10672F782F8827B85F39F0B93FCCF38695D4
S1130A2077956795B395D9F73EF490958095709531
S1130A3061957F4F8F4F9F4F0895E89409C097FBAE
S1130A403EF490958095709561957F4F8F4F9F4FA1
S1130A509923A9F0F92F96E9BB279395F6958795E5
S1130A6077956795B795F111F8CFFAF4BB0F11F4A8
S1130A7060FF1BC06F5F7F4F8F4F9F4F16C088234F
S1130A8011F096E911C0772321F09EE8872F762F85
S1130A9005C0662371F096E8862F70E060E02AF0C6
S1130AA09A95660F771F881FDAF7880F96958795B2
S1130AB097F90895990F0008550FAA0BE0E8FEEF87
S1130AC016161706E807F907C0F012161306E4070E
S1130AD0F50798F0621B730B840B950B39F40A2607
S1130AE061F0232B242B252B21F408950A2609F4E5
S1130AF0A140A6958FEF811D811D089557FD905843
S1130B00440F551F59F05F3F71F04795880F97FBCD
S1130B10991F61F09F3F79F0879508951216130687
S1130B201406551FF2CF4695F1DF08C016161706B6
S1130B301806991FF1CF86957105610508940895EB
S1130B40E894BB2766277727CB0197F908950E947D
S1130B505A0508F48FEF08950E94BF050C943006DF
S1130B600E94220638F00E94290620F0952311F0F5
S1130B700C9419060C941F0611240C94A1050E94D0
S1130B807E0570F3959FC1F3950F50E0551F629F4A
S1130B90F001729FBB27F00DB11D639FAA27F00DD2
S1130BA0B11DAA1F649F6627B00DA11D661F829FF9
S1130BB02227B00DA11D621F739FB00DA11D621FDE
S1130BC0839FA00D611D221F749F3327A00D611DFB
S1130BD0231F849F600D211D822F762F6A2F1124DD
S1130BE09F5750409AF0F1F088234AF0EE0FFF1F10
S1130BF0BB1F661F771F881F91505040A9F79E3F67
S1130C00510580F00C9419060C94A1055F3FE4F3A0
S1130C10983ED4F3869577956795B795F795E795BC
S1130C209F5FC1F7FE2B880F911D9695879597F9C5
S1130C30089597F99F6780E870E060E008959FEF5A
S1130C4080EC089500240A9416161706180609065F
S1130C50089500240A94121613061406050608952E
S1130C60092E0394000C11F4882352F0BB0F40F4B6
S1130C70BF2B11F460FF04C06F5F7F4F8F4F9F4FF6
S1090C800895F894FFCF73
S9030000FC
