S00B0000514E312E7372656349
S11300000C9448000C9452000C9452000C9452002E
S11300100C9452000C9452000C9452000C94520014
S11300200C9452000C9452000C9452000C94520004
S11300300C9452000C9452000C9452000C945200F4
S11300400C9452000C9452000C9452000C945200E4
S11300500C9452000C9452000C9452000C945200D4
S11300600C9452000C9452000C9452000C945200C4
S11300700C9452000C9452000C9452000C945200B4
S11300800C9452000C9452000C9452000C945200A4
S113009011241FBECFEFCDBFDFE3DEBF0E947C0083
S11300A00C94FB000C9400000E94D6000895882351
S11300B021F08DB181608DB903C08DB18E7F8DB972
S11300C0662321F08DB182608DB903C08DB18D7F1F
S11300D08DB9442321F08DB184608DB903C08DB1F5
S11300E08B7F8DB9222321F08DB188608DB908955D
S11300F08DB1877F8DB908950E94540020E041E0BE
S113010061E080E00E94570080E090E0089580E084
S1130110089580E0089580E0089580E008C0E82F05
S1130120F0E0E05FFB4F9081986090838F5F8830B0
S1130130B0F380E008C0E82FF0E0E05DFB4F908171
S1130140986090838F5F8830B0F380E008C0E82F18
S1130150F0E0E05BFB4F9081986090838F5F883084
S1130160B0F380E008C0E82FF0E0E059FB4F908145
S1130170986090838F5F8830B0F380E008C0E82FE8
S1130180F0E0E057FB4F9081986090838F5F883058
S1130190B0F380E008C0E82FF0E0E055FB4F908119
S11301A0986090838F5F8830B0F308950E948D002B
S11301B08DB18E7F8DB98CB181608CB98DB18D7FFD
S11301C08DB98CB182608CB98DB18B7F8DB98CB1B6
S11301D084608CB98DB1877F8DB98CB188608CB9FE
S11301E00E9489000E948B000E94F9000E948700EF
S10D01F0089580E00895F894FFCF0D
S9030000FC
