:100000000C9448000C9452000C9452000C94520032
:100010000C9452000C9452000C9452000C94520018
:100020000C9452000C9452000C9452000C94520008
:100030000C9452000C9452000C9452000C945200F8
:100040000C9452000C9452000C9452000C945200E8
:100050000C9452000C9452000C9452000C945200D8
:100060000C9452000C9452000C9452000C945200C8
:100070000C9452000C9452000C9452000C945200B8
:100080000C9452000C9452000C9452000C945200A8
:1000900011241FBECFEFCDBFDFE3DEBF0E9466009D
:1000A0000C942F010C9400000E94CB0008959C0139
:1000B00040E050E064EB74EC84E090E00E94EE00DD
:1000C000E0E8FAE024872695258708950E945400E9
:1000D00080E29EE40E945700FBCF80E008954BE051
:1000E00068ED81E690E00E94D80080E0089580E00D
:1000F000089580E008C0E82FF0E0E05FFB4F9081BA
:10010000986090838F5F8830B0F380E008C0E82F5C
:10011000F0E0E05DFB4F9081986090838F5F8830C6
:10012000B0F380E008C0E82FF0E0E05BFB4F908187
:10013000986090838F5F8830B0F380E008C0E82F2C
:10014000F0E0E059FB4F9081986090838F5F88309A
:10015000B0F380E008C0E82FF0E0E057FB4F90815B
:10016000986090838F5F8830B0F380E008C0E82FFC
:10017000F0E0E055FB4F9081986090838F5F88306E
:10018000B0F3089581B18B7F81B980B1846080B96B
:100190000E94DE0008950E9479000E946F000E9474
:1001A000C2000E9477000E94DC000E946D0008954A
:1001B000FC0164BF4083089580E00895E0E8FAE020
:1001C0008FEF90E08487958785E290E08287938720
:1001D00087E1818381E0808380E00895052E97FB8D
:1001E0001EF400940E94050157FD07D00E940D01E6
:1001F00007FC03D04EF40C940501509540953095C2
:1002000021953F4F4F4F5F4F089590958095709582
:1002100061957F4F8F4F9F4F0895A1E21A2EAA1B21
:10022000BB1BFD010DC0AA1FBB1FEE1FFF1FA217A6
:10023000B307E407F50720F0A21BB30BE40BF50BA3
:10024000661F771F881F991F1A9469F7609570952C
:10025000809590959B01AC01BD01CF010895F89464
:02026000FFCFCE
:00000001FF
