S00B0000514E322E7372656348
S11300000C9448000C9452000C9452000C9452002E
S11300100C9452000C9452000C9452000C94520014
S11300200C9452000C9452000C9452000C94520004
S11300300C9452000C9452000C9452000C945200F4
S11300400C9452000C9452000C9452000C945200E4
S11300500C9452000C9452000C9452000C945200D4
S11300600C9452000C9452000C9452000C945200C4
S11300700C9452000C9452000C9452000C945200B4
S11300800C9452000C9452000C9452000C945200A4
S113009011241FBECFEFCDBFDFE3DEBF0E94710688
S11300A00C94BD090C940000CF93DF93CDB7DEB759
S11300B00E9433080000DF91CF910895CF93DF931E
S11300C000D0CDB7DEB789836A838A818823A9F0FB
S11300D08CE090E02CE030E0F9012181622F29814D
S11300E0422F50E021E030E002C0220F331F4A9536
S11300F0E2F7262BFC01218315C08CE090E02CE074
S113010030E0F9012181622F2981422F50E021E062
S113011030E002C0220F331F4A95E2F720952623D0
S1130120FC01218300000F900F90DF91CF9108957F
S1130130CF93DF931F92CDB7DEB78983698180E0C7
S11301400E945E0000000F90DF91CF910895CF933D
S1130150DF931F92CDB7DEB78983698181E00E9466
S11301605E0000000F90DF91CF910895CF93DF934D
S11301701F92CDB7DEB78983698182E00E945E0059
S113018000000F90DF91CF910895CF93DF931F92DA
S1130190CDB7DEB78983698183E00E945E000000E9
S11301A00F90DF91CF9108950F931F93CF93DF9317
S11301B0CDB7DEB7C357D109CDBFDEBF9E012F58DF
S11301C03F4FF9018083CE018E589F4FFC0160831D
S11301D07183CE018F589F4FFC018081882309F0E1
S11301E001C181E00E949800CE018E589F4FFC010E
S11301F080819181CC01A0E0B0E0BC01CD010E94DE
S11302009908DC01CB018D839E83AF83B88724E5F5
S113021035E540E554E46D817E818F8198850E94A7
S11302202809DC01CB018BA79CA7ADA7BEA720E0C2
S113023030E040E85FE36BA57CA58DA59EA50E94F8
S1130240650888232CF481E090E08FA798AB3FC029
S113025020E03FEF4FE757E46BA57CA58DA59EA555
S11302600E94230918164CF520E030E040E251E4E6
S11302706D817E818F8198850E942809DC01CB01E4
S1130280BC01CD010E946A08DC01CB018FA798ABA9
S11302900FC083E590E089AB9AAB89A99AA901972D
S11302A0F1F789AB9AAB8FA598A901978FA798AB63
S11302B08FA598A9892B69F714C06BA57CA58DA57A
S11302C09EA50E946A08DC01CB018FA798AB8FA57D
S11302D098A98BAB9CAB8BA99CA90197F1F78BAB2D
S11302E09CAB80E00E949800CE018E589F4FFC0189
S11302F080819181CC01A0E0B0E0BC01CD010E94DD
S11303009908DC01CB018D8F9E8FAF8FB8A324E5B4
S113031035E540E554E46D8D7E8D8F8D98A10E9466
S11303202809DC01CB0189A39AA3ABA3BCA320E0D9
S113033030E040E85FE369A17AA18BA19CA10E940F
S1130340650888232CF481E090E08DA39EA33FC030
S113035020E03FEF4FE757E469A17AA18BA19CA16C
S11303600E94230918164CF520E030E040E251E4E5
S11303706D8D7E8D8F8D98A10E942809DC01CB01A3
S1130380BC01CD010E946A08DC01CB018DA39EA3B0
S11303900FC083E590E08FA398A78FA198A501973C
S11303A0F1F78FA398A78DA19EA101978DA39EA37A
S11303B08DA19EA1892B69F78AC469A17AA18BA119
S11303C09CA10E946A08DC01CB018DA39EA38DA190
S11303D09EA189A79AA789A59AA50197F1F789A74C
S11303E09AA775C4CE018F589F4FFC01808181303C
S11303F009F044C181E00E94A700CE018E589F4FAE
S1130400FC0180819181CC01A0E0B0E0BC01CD0170
S11304100E949908DC01CB018D879E87AF87B88B3A
S11304208E01015C1F4F24E535E540E554E46D85FC
S11304307E858F8598890E942809DC01CB01F8010B
S113044080839183A283B383CE01CF9620E030E0F2
S113045040E85FE3FC0160817181828193810E94A5
S1130460650888234CF4CE018D5B9F4F21E030E07A
S1130470FC012083318367C0CE01CF9620E03FEF9B
S11304804FE757E4FC0160817181828193810E946E
S1130490230918160CF046C020E030E040E251E495
S11304A06D857E858F8598890E942809DC01CB01A2
S11304B08E010D5B1F4FBC01CD010E946A08DC0157
S11304C0CB01F8018083918324C0CE018B5B9F4FC5
S11304D023E530E0FC0120833183CE018B5B9F4F09
S11304E0FC01808191810197F1F79E012B5B3F4FC5
S11304F0F90180839183CE018D5B9F4F9E012D5B1B
S11305003F4FF9012081318121503109FC012083C1
S11305103183CE018D5B9F4FFC0180819181892BBA
S1130520A1F62BC08E010D5B1F4FCE01CF96FC01AF
S113053060817181828193810E946A08DC01CB0110
S1130540F80180839183CE01895B9F4F9E012D5BCF
S11305503F4FF90120813181FC0120833183CE0199
S1130560895B9F4FFC01808191810197F1F79E0186
S1130570295B3F4FF9018083918380E00E94A700AB
S1130580CE018E589F4FFC0180819181CC01A0E067
S1130590B0E0BC01CD010E949908DC01CB01898344
S11305A09A83AB83BC8324E535E540E554E4698153
S11305B07A818B819C810E942809DC01CB018DAB5F
S11305C09EABAFABB8AF20E030E040E85FE36DA98D
S11305D07EA98FA998AD0E94650888232CF481E038
S11305E090E089AF9AAF3FC020E03FEF4FE757E478
S11305F06DA97EA98FA998AD0E94230918164CF500
S113060020E030E040E251E469817A818B819C8171
S11306100E942809DC01CB01BC01CD010E946A08BB
S1130620DC01CB0189AF9AAF0FC083E590E08BAFBB
S11306309CAF8BAD9CAD0197F1F78BAF9CAF89ADAF
S11306409AAD019789AF9AAF89AD9AAD892B69F7B5
S11306503EC36DA97EA98FA998AD0E946A08DC01EA
S1130660CB0189AF9AAF89AD9AAD8DAF9EAF8DADF9
S11306709EAD0197F1F78DAF9EAF29C3CE018F5880
S11306809F4FFC018081823009F08DC181E00E947E
S1130690B600CE018E589F4FFC0180819181CC0120
S11306A0A0E0B0E0BC01CD010E949908DC01CB01BF
S11306B08D8B9E8BAF8BB88F8E010D5A1F4F24E507
S11306C035E540E554E46D897E898F89988D0E94D3
S11306D02809DC01CB01F80180839183A283B383D1
S11306E0CE018D5A9F4F20E030E040E85FE3FC01EB
S11306F060817181828193810E94650888234CF412
S1130700CE01895A9F4F21E030E0FC0120833183E0
S113071069C0CE018D5A9F4F20E03FEF4FE757E469
S1130720FC0160817181828193810E9423091816E2
S11307300CF046C020E030E040E251E46D897E894F
S11307408F89988D0E942809DC01CB018E01095AFA
S11307501F4FBC01CD010E946A08DC01CB01F801E6
S11307608083918324C0CE01875A9F4F23E530E0D4
S1130770FC0120833183CE01875A9F4FFC01808185
S113078091810197F1F79E01275A3F4FF901808328
S11307909183CE01895A9F4F9E01295A3F4FF901F7
S11307A02081318121503109FC0120833183CE0124
S11307B0895A9F4FFC0180819181892BA1F62CC01D
S11307C08E01095A1F4FCE018D5A9F4FFC01608143
S11307D07181828193810E946A08DC01CB01F80156
S11307E080839183CE01855A9F4F9E01295A3F4FA2
S11307F0F90120813181FC0120833183CE01855AA6
S11308009F4FFC01808191810197F1F79E01255A48
S11308103F4FF9018083918380E00E94B600CE01AE
S11308208E589F4FFC0180819181CC01A0E0B0E003
S1130830BC01CD010E949908DC01CB0189879A870C
S1130840AB87BC878E01075B1F4F24E535E540E588
S113085054E469857A858B859C850E942809DC018E
S1130860CB01F80180839183A283B383CE01875B9C
S11308709F4F20E030E040E85FE3FC01608171813C
S1130880828193810E94650888234CF4CE01835BA6
S11308909F4F21E030E0FC012083318369C0CE0109
S11308A0875B9F4F20E03FEF4FE757E4FC016081F7
S11308B07181828193810E94230918160CF046C02D
S11308C020E030E040E251E469857A858B859C859F
S11308D00E942809DC01CB018E01035B1F4FBC0180
S11308E0CD010E946A08DC01CB01F8018083918369
S11308F024C0CE01815B9F4F23E530E0FC012083BF
S11309003183CE01815B9F4FFC01808191810197EE
S1130910F1F79E01215B3F4FF90180839183CE0162
S1130920835B9F4F9E01235B3F4FF90120813181FF
S113093021503109FC0120833183CE01835B9F4F19
S1130940FC0180819181892BA1F6C1C18E01035BD9
S11309501F4FCE01875B9F4FFC01608171818281B3
S113096093810E946A08DC01CB01F80180839183A2
S1130970CE018F5A9F4F9E01235B3F4FF901208187
S11309803181FC0120833183CE018F5A9F4FFC01BA
S1130990808191810197F1F79E012F5A3F4FF90110
S11309A08083918394C1CE018F589F4FFC01808135
S11309B0833009F08CC181E00E94C500CE018E58BD
S11309C09F4FFC0180819181CC01A0E0B0E0BC018B
S11309D0CD010E949908DC01CB01898F9A8FAB8FDE
S11309E0BC8F8E0109591F4F24E535E540E554E4D9
S11309F0698D7A8D8B8D9C8D0E942809DC01CB0139
S1130A00F80180839183A283B383CE0189599F4FD8
S1130A1020E030E040E85FE3FC0160817181828185
S1130A2093810E94650888234CF4CE0185599F4F19
S1130A3021E030E0FC012083318369C0CE01895973
S1130A409F4F20E03FEF4FE757E4FC016081718145
S1130A50828193810E94230918160CF046C020E07D
S1130A6030E040E251E4698D7A8D8B8D9C8D0E943B
S1130A702809DC01CB018E0105591F4FBC01CD01B2
S1130A800E946A08DC01CB01F8018083918324C0B1
S1130A90CE0183599F4F23E530E0FC01208331834D
S1130AA0CE0183599F4FFC01808191810197F1F719
S1130AB09E0123593F4FF90180839183CE018559CB
S1130AC09F4F9E0125593F4FF901208131812150CB
S1130AD03109FC0120833183CE0185599F4FFC01EC
S1130AE080819181892BA1F62CC08E0105591F4F5D
S1130AF0CE0189599F4FFC0160817181828193816C
S1130B000E946A08DC01CB01F80180839183CE0145
S1130B1081599F4F9E0125593F4FF9012081318111
S1130B20FC0120833183CE0181599F4FFC018081D8
S1130B3091810197F1F79E0121593F4FF90180837B
S1130B40918380E00E94C500CE018E589F4FFC0126
S1130B5080819181CC01A0E0B0E0BC01CD010E9474
S1130B609908DC01CB01898B9A8BAB8BBC8B8E01F2
S1130B70035A1F4F24E535E540E554E469897A8931
S1130B808B899C890E942809DC01CB01F8018083B0
S1130B909183A283B383CE01835A9F4F20E030E038
S1130BA040E85FE3FC0160817181828193810E944E
S1130BB0650888234CF4CE018F599F4F21E030E023
S1130BC0FC012083318369C0CE01835A9F4F20E00A
S1130BD03FEF4FE757E4FC0160817181828193818B
S1130BE00E94230918160CF046C020E030E040E2D1
S1130BF051E469897A898B899C890E942809DC01DE
S1130C00CB018E010F591F4FBC01CD010E946A0810
S1130C10DC01CB01F8018083918324C0CE018D597E
S1130C209F4F23E530E0FC0120833183CE018D59B1
S1130C309F4FFC01808191810197F1F79E012D590D
S1130C403F4FF90180839183CE018F599F4F9E01BD
S1130C502F593F4FF9012081318121503109FC0185
S1130C6020833183CE018F599F4FFC018081918174
S1130C70892BA1F62CC08E010F591F4FCE01835A28
S1130C809F4FFC0160817181828193810E946A0877
S1130C90DC01CB01F80180839183CE018B599F4FF6
S1130CA09E012F593F4FF90120813181FC0120839E
S1130CB03183CE018B599F4FFC0180819181019733
S1130CC0F1F79E012B593F4FF90180839183000076
S1130CD0CD58DF4FCDBFDEBFDF91CF911F910F9174
S1130CE00895CF93DF93CDB7DEB70E94540068EE2A
S1130CF073E083E00E94D400FACFCF93DF93CDB7A3
S1130D00DEB780E0DF91CF910895CF93DF93CDB725
S1130D10DEB780E0DF91CF910895CF93DF93CDB715
S1130D20DEB780E0DF91CF910895CF93DF9300D0B9
S1130D30CDB7DEB789836A838A81882F90E08130BA
S1130D409105E1F08230910571F1892B09F03BC0E6
S1130D508CE090E02CE030E0F9012081622F2981C1
S1130D60422F50E021E030E002C0220F331F4A95A9
S1130D70E2F720952623FC01208325C08CE090E037
S1130D802CE030E0F9012081622F2981422F50E0CC
S1130D9021E030E002C0220F331F4A95E2F7262BF0
S1130DA0FC01208310C08981882F90E080599B4FDB
S1130DB02981222F30E020593B4FF90120812860FE
S1130DC0FC012083000000000F900F90DF91CF9171
S1130DD00895CF93DF9300D0CDB7DEB789836A83BC
S1130DE08A818823A9F08CE090E02CE030E0F901BE
S1130DF02181622F2981422F50E021E030E002C09E
S1130E00220F331F4A95E2F7262BFC01218315C0DC
S1130E108CE090E02CE030E0F9012181622F2981FF
S1130E20422F50E021E030E002C0220F331F4A95E8
S1130E30E2F720952623FC01218300000F900F90F8
S1130E40DF91CF910895CF93DF931F92CDB7DEB793
S1130E508983698180E00E94950600000F90DF91EC
S1130E60CF910895CF93DF931F92CDB7DEB78983D7
S1130E70698180E00E94E90600000F90DF91CF9124
S1130E800895CF93DF931F92CDB7DEB7898369812D
S1130E9081E00E94950600000F90DF91CF910895A4
S1130EA0CF93DF931F92CDB7DEB78983698181E049
S1130EB00E94E90600000F90DF91CF910895CF932F
S1130EC0DF931F92CDB7DEB78983698182E00E94E8
S1130ED0950600000F90DF91CF910895CF93DF9393
S1130EE01F92CDB7DEB78983698182E00E94E9064B
S1130EF000000F90DF91CF910895CF93DF931F925D
S1130F00CDB7DEB78983698183E00E94950600002E
S1130F100F90DF91CF910895CF93DF931F92CDB7B8
S1130F20DEB78983698183E00E94E90600000F909F
S1130F30DF91CF910895CF93DF93CDB7DEB7269796
S1130F40CDBFDEBF198212C08981882F90E0805FF7
S1130F509B4F2981222F30E0205F3B4FF9012081F4
S1130F602860FC01208389818F5F8983898188308F
S1130F7058F31A8212C08A81882F90E0805D9B4FBB
S1130F802A81222F30E0205D3B4FF9012081286027
S1130F90FC0120838A818F5F8A838A81883058F399
S1130FA01B8212C08B81882F90E0805B9B4F2B812A
S1130FB0222F30E0205B3B4FF90120812860FC01A7
S1130FC020838B818F5F8B838B81883058F31C82C5
S1130FD012C08C81882F90E080599B4F2C81222F46
S1130FE030E020593B4FF90120812860FC01208327
S1130FF08C818F5F8C838C81883058F31D8212C062
S11310008D81882F90E080579B4F2D81222F30E0D7
S113101020573B4FF90120812860FC0120838D81FA
S11310208F5F8D838D81883058F31E8212C08E812C
S1131030882F90E080559B4F2E81222F30E0205541
S11310403B4FF90120812860FC0120838E818F5F52
S11310508E838E81883058F300002696CDBFDEBF84
S1131060DF91CF910895CF93DF93CDB7DEB70E9480
S11310709B0780E00E94320781E00E94230780E002
S11310800E94500781E00E94410780E00E946E07A1
S113109081E00E945F0780E00E948C0781E00E944B
S11310A07D070E9485060E948D060E945D080E94AD
S11310B07D060000DF91CF910895CF93DF93CDB7E4
S11310C0DEB780E0DF91CF9108950E94D60808F43E
S11310D081E008950E94020988F09F5798F0B92F83
S11310E09927B751B0F0E1F0660F771F881F991F59
S11310F01AF0BA95C9F714C0B13091F00E941C09D6
S1131100B1E008950C941C09672F782F8827B85FE5
S113111039F0B93FCCF3869577956795B395D9F7B0
S11311203EF490958095709561957F4F8F4F9F4FBA
S11311300895E89409C097FB3EF4909580957095C6
S113114061957F4F8F4F9F4F9923A9F0F92F96E90F
S1131150BB279395F695879577956795B795F11184
S1131160F8CFFAF4BB0F11F460FF1BC06F5F7F4F21
S11311708F4F9F4F16C0882311F096E911C0772333
S113118021F09EE8872F762F05C0662371F096E83C
S1131190862F70E060E02AF09A95660F771F881F0B
S11311A0DAF7880F9695879597F90895990F0008AF
S11311B0550FAA0BE0E8FEEF16161706E807F90725
S11311C0C0F012161306E407F50798F0621B730BC0
S11311D0840B950B39F40A2661F0232B242B252B41
S11311E021F408950A2609F4A140A6958FEF811DE4
S11311F0811D089557FD9058440F551F59F05F3FC6
S113120071F04795880F97FB991F61F09F3F79F024
S113121087950895121613061406551FF2CF4695A6
S1131220F1DF08C0161617061806991FF1CF869528
S11312307105610508940895E894BB27662777270C
S1131240CB0197F908950E94D60808F48FEF08950A
S11312500E943B090C94AC090E949E0938F00E943C
S1131260A50920F0952311F00C9495090C949B0981
S113127011240C941D090E94FA0870F3959FC1F380
S1131280950F50E0551F629FF001729FBB27F00D30
S1131290B11D639FAA27F00DB11DAA1F649F662785
S11312A0B00DA11D661F829F2227B00DA11D621FD4
S11312B0739FB00DA11D621F839FA00D611D221F8E
S11312C0749F3327A00D611D231F849F600D211D72
S11312D0822F762F6A2F11249F5750409AF0F1F0F5
S11312E088234AF0EE0FFF1FBB1F661F771F881F5E
S11312F091505040A9F79E3F510580F00C949509F8
S11313000C941D095F3FE4F3983ED4F386957795DA
S11313106795B795F795E7959F5FC1F7FE2B880F03
S1131320911D9695879597F9089597F99F6780E899
S113133070E060E008959FEF80EC089500240A9423
S11313401616170618060906089500240A9412169C
S11313501306140605060895092E0394000C11F4CF
S1131360882352F0BB0F40F4BF2B11F460FF04C07C
S11113706F5F7F4F8F4F9F4F0895F894FFCF0C
S9030000FC
