S00E000054696D6572322E73726563E3
S11300000C9448000C9452000C9452000C9452002E
S11300100C9452000C9452000C9452000C94520014
S11300200C9452000C9452000C9452000C94520004
S11300300C9452000C9452000C9452000C945200F4
S11300400C9452000C9452000C9452000C945200E4
S11300500C9452000C9452000C9452000C945200D4
S11300600C9452000C9452000C9452000C945200C4
S11300700C9452000C9452000C9452000C945200B4
S11300800C9452000C9452000C9452000C945200A4
S113009011241FBECFEFCDBFDFE3DEBF0E94670098
S11300A00C94FF000C9400000E94E400089590E07A
S11300B08093380A9093390A70E060933A0A7093F7
S11300C03B0A50E040933C0A50933D0A08950E9435
S11300D0540048EC62E384E60E945700FACF80E0C3
S11300E0089540E168ED81E690E00E94F10080E02F
S11300F0089580E0089580E008C0E82FF0E0E05F14
S1130100FB4F9081986090838F5F8830B0F380E0DC
S113011008C0E82FF0E0E05DFB4F90819860908389
S11301208F5F8830B0F380E008C0E82FF0E0E05B38
S1130130FB4F9081986090838F5F8830B0F380E0AC
S113014008C0E82FF0E0E059FB4F9081986090835D
S11301508F5F8830B0F380E008C0E82FF0E0E0570C
S1130160FB4F9081986090838F5F8830B0F380E07C
S113017008C0E82FF0E0E055FB4F90819860908331
S11301808F5F8830B0F308958DB18E7F8DB98CB1B7
S113019081608CB9E0EEF5E08481836084838DB165
S11301A08D7F8DB98CB182608CB9848183608483A6
S11301B08DB18B7F8DB98CB184608CB9848183605F
S11301C084830E94F70008950E947B000E947100BE
S11301D00E94C4000E9479000E94F5000E946F00F2
S11301E00895FC0164BF4083089580E00895E0E031
S11301F0FAE083E7818381E0808380E00895F894C6
S1050200FFCF2A
S9030000FC
