S01100005443415F54696D65722E73726563DB
S11300000C9448000C9452000C9452000C9452002E
S11300100C9452000C9452000C9452000C94520014
S11300200C9452000C9452000C9452000C94520004
S11300300C9452000C9452000C9452000C945200F4
S11300400C9452000C9452000C9452000C945200E4
S11300500C9452000C9452000C9452000C945200D4
S11300600C9452000C9452000C9452000C945200C4
S11300700C9452000C9452000C9452000C945200B4
S11300800C9452000C9452000C9452000C945200A4
S113009011241FBECFEFCDBFDFE3DEBF0E9463009C
S11300A00C94FD000C9400000E94DA00089590E086
S11300B0E0E0FAE080A791A770E062A773A750E0A0
S11300C044A755A708950E94540044E664E684E6D4
S11300D00E945700FACF80E0089580E0089580E000
S11300E0089580E008C0E82FF0E0E05FFB4F9081C6
S11300F0986090838F5F8830B0F380E008C0E82F69
S1130100F0E0E05DFB4F9081986090838F5F8830D2
S1130110B0F380E008C0E82FF0E0E05BFB4F908193
S1130120986090838F5F8830B0F380E008C0E82F38
S1130130F0E0E059FB4F9081986090838F5F8830A6
S1130140B0F380E008C0E82FF0E0E057FB4F908167
S1130150986090838F5F8830B0F380E008C0E82F08
S1130160F0E0E055FB4F9081986090838F5F88307A
S1130170B0F308958DB18E7F8DB98CB181608CB947
S1130180E0EEF5E08481836084838DB18D7F8DB949
S11301908CB182608CB98481836084838DB18B7FC0
S11301A08DB98CB184608CB98481836084830E940E
S11301B0E90008950E9471000E946D000E94BA0037
S11301C00E946F000E94E7000E946B00089580E087
S11301D00895E0E0FAE010A611A612A613A614A64C
S11301E015A610A211A283E7818387E082838FEF93
S11101F090E086A397A380E00895F894FFCFD3
S9030000FC
