:100000000C9448000C9452000C9452000C94520032
:100010000C9452000C9452000C9452000C94520018
:100020000C9452000C9452000C9452000C94520008
:100030000C9452000C9452000C9452000C945200F8
:100040000C9452000C9452000C9452000C945200E8
:100050000C9452000C9452000C9452000C945200D8
:100060000C9452000C9452000C9452000C945200C8
:100070000C9452000C9452000C9452000C945200B8
:100080000C9452000C9452000C9452000C945200A8
:1000900011241FBECFEFCDBFDFE3DEBF0E945D00A6
:1000A0000C94E6000C940000E0E8FAE09FEF9487DF
:1000B000858708950E94C70008950E945A0080E035
:1000C00090E00E945400FBCF80E0089540E168ED8D
:1000D00081E690E00E94D40080E0089580E00895D9
:1000E00080E008C0E82FF0E0E05FFB4F908198606F
:1000F00090838F5F8830B0F380E008C0E82FF0E095
:10010000E05DFB4F9081986090838F5F8830B0F303
:1001100080E008C0E82FF0E0E05BFB4F9081986042
:1001200090838F5F8830B0F380E008C0E82FF0E064
:10013000E059FB4F9081986090838F5F8830B0F3D7
:1001400080E008C0E82FF0E0E057FB4F9081986016
:1001500090838F5F8830B0F380E008C0E82FF0E034
:10016000E055FB4F9081986090838F5F8830B0F3AB
:10017000089585B38F7E85BB84B3806184BBE0EE38
:10018000F5E08581816085830E94DA0008950E94F0
:1001900070000E9466000E94B9000E946E000E94DA
:1001A000D8000E9464000895FC0164BF4083089554
:1001B00080E00895E0E8FAE08FEF90E0848795878B
:1001C00087E1818381E0808380E00895F894FFCF08
:00000001FF
