S01500005175657374696F6E335F53616D2E7372656304
S11300000C9448000C9452000C9452000C9452002E
S11300100C9452000C9452000C9452000C94520014
S11300200C9452000C9452000C9452000C94520004
S11300300C9452000C9452000C9452000C945200F4
S11300400C9452000C9452000C9452000C945200E4
S11300500C9452000C9452000C9452000C945200D4
S11300600C9452000C9452000C9452000C945200C4
S11300700C9452000C9452000C9452000C945200B4
S11300800C9452000C9452000C9452000C945200A4
S113009011241FBECFEFCDBFDFE3DEBF0E94780087
S11300A00C9498060C940000CF93DF93CDB7DEB781
S11300B00E94E9020000DF91CF910895CF93DF936E
S11300C0CDB7DEB72697CDBFDEBF89839A836B8316
S11300D07C834D835E8389819A810E94B3048D81E0
S11300E09E810E94FC038B819C810E944503F3CF77
S11300F0CF93DF93CDB7DEB72C97CDBFDEBF0E9481
S1130100540084E690E0A0E0B0E089879A87AB874A
S1130110BC8786E990E0A0E0B0E08D839E83AF8346
S1130120B88788EC90E0A0E0B0E089839A83AB8341
S1130130BC839E01275F3F4FCE010596A901BC01F8
S1130140CE0101960E945E00F4CFCF93DF93CDB72A
S1130150DEB780E0DF91CF910895CF93DF93CDB7E1
S1130160DEB780E0DF91CF910895CF93DF93CDB7D1
S1130170DEB780E0DF91CF910895CF93DF9300D075
S1130180CDB7DEB789836A838A81882F90E0813076
S11301909105E1F08230910571F1892B09F03BC0A2
S11301A020E030E080E090E0FC018081682F8981CC
S11301B0482F50E081E090E002C0880F991F4A95D3
S11301C0E2F780958623F901808325C020E030E0A2
S11301D080E090E0FC018081682F8981482F50E005
S11301E081E090E002C0880F991F4A95E2F7862BC0
S11301F0F901808310C08981882F90E0805F9B4F34
S11302002981222F30E0205F3B4FF90120812860B3
S1130210FC012083000000000F900F90DF91CF912C
S11302200895CF93DF9300D0CDB7DEB789836A8377
S11302308A818823A9F020E030E080E090E0FC018E
S11302408181682F8981482F50E081E090E002C0CD
S1130250880F991F4A95E2F7862BF901818315C00F
S113026020E030E080E090E0FC018181682F89810A
S1130270482F50E081E090E002C0880F991F4A9512
S1130280E2F780958623F901818300000F900F9097
S1130290DF91CF910895CF93DF9300D0CDB7DEB730
S11302A089836A838A81882F90E081309105E1F007
S11302B08230910571F1892B09F03BC08CE090E00C
S11302C02CE030E0F9012081622F2981422F50E097
S11302D021E030E002C0220F331F4A95E2F7209557
S11302E02623FC01208325C08CE090E02CE030E044
S11302F0F9012081622F2981422F50E021E030E072
S113030002C0220F331F4A95E2F7262BFC012083FB
S113031010C08981882F90E080599B4F2981222F1A
S113032030E020593B4FF90120812860FC012083F3
S1130330000000000F900F90DF91CF910895CF93AC
S1130340DF9300D0CDB7DEB789836A838A8188239F
S1130350A9F08CE090E02CE030E0F9012181622FDB
S11303602981422F50E021E030E002C0220F331FE8
S11303704A95E2F7262BFC01218315C08CE090E01E
S11303802CE030E0F9012181622F2981422F50E0D5
S113039021E030E002C0220F331F4A95E2F7209596
S11303A02623FC01218300000F900F90DF91CF9151
S11303B00895CF93DF931F92CDB7DEB78983698108
S11303C083E00E94BD0000000F90DF91CF9108955B
S11303D0CF93DF931F92CDB7DEB78983698183E022
S11303E00E94110100000F90DF91CF910895CF93E7
S11303F0DF931F92CDB7DEB78983698180E00E94C5
S11304004B0100000F90DF91CF910895CF93DF93BC
S11304101F92CDB7DEB78983698180E00E949F0176
S113042000000F90DF91CF910895CF93DF931F9237
S1130430CDB7DEB78983698181E00E944B0100005A
S11304400F90DF91CF910895CF93DF931F92CDB793
S1130450DEB78983698181E00E949F0100000F90CB
S1130460DF91CF910895CF93DF931F92CDB7DEB77D
S11304708983698182E00E944B0100000F90DF9123
S1130480CF910895CF93DF931F92CDB7DEB78983C1
S1130490698182E00E949F0100000F90DF91CF915B
S11304A00895CF93DF93CDB7DEB72697CDBFDEBFD8
S11304B0198212C08981882F90E0805F9B4F298127
S11304C0222F30E0205F3B4FF90120812860FC019E
S11304D0208389818F5F89838981883058F31A82C8
S11304E012C08A81882F90E0805D9B4F2A81222F41
S11304F030E0205D3B4FF90120812860FC0120831E
S11305008A818F5F8A838A81883058F31B8212C064
S11305108B81882F90E0805B9B4F2B81222F30E0D2
S1130520205B3B4FF90120812860FC0120838B81F3
S11305308F5F8B838B81883058F31C8212C08C812F
S1130540882F90E080599B4F2C81222F30E0205936
S11305503B4FF90120812860FC0120838C818F5F4F
S11305608C838C81883058F31D8212C08D81882F32
S113057090E080579B4F2D81222F30E020573B4F36
S1130580F90120812860FC0120838D818F5F8D8398
S11305908D81883058F31E8212C08E81882F90E09E
S11305A080559B4F2E81222F30E020553B4FF9017F
S11305B020812860FC0120838E818F5F8E838E8151
S11305C0883058F300002696CDBFDEBFDF91CF916F
S11305D00895CF93DF93CDB7DEB70E94510280E038
S11305E00E94E80181E00E94D90180E00E94060295
S11305F081E00E94F70180E00E94240281E00E94D1
S1130600150280E00E94420281E00E9433020E94AF
S1130610AD000E94B5000E9413030E94A5000000D3
S1130620DF91CF910895CF93DF93CDB7DEB780E00C
S1130630DF91CF910895CF93DF931F92CDB7DEB7AB
S113064089838CE090E02CE030E0F9012281622F74
S11306502981422F50E021E030E002C0220F331FF5
S11306604A95E2F7262BFC01228300000F90DF91CC
S1130670CF910895CF93DF93CDB7DEB782E00E9488
S11306801B030000DF91CF910895CF93DF93CDB783
S1130690DEB76097CDBFDEBF8F87988B0E943A0389
S11306A08F859889FC0180819181A281B381BC01ED
S11306B0CD010E947405DC01CB0189839A83AB834D
S11306C0BC8324E535E540E554E469817A818B8176
S11306D09C810E940306DC01CB018D839E83AF8342
S11306E0B88720E030E040E85FE36D817E818F8150
S11306F098850E94400588232CF481E090E0898746
S11307009A873FC020E03FEF4FE757E46D817E8139
S11307108F8198850E94FE0518164CF520E030E084
S113072040E251E469817A818B819C810E940306B5
S1130730DC01CB01BC01CD010E944505DC01CB01EC
S113074089879A870FC083E590E08B879C878B8588
S11307509C850197F1F78B879C8789859A850197FA
S113076089879A8789859A85892B69F714C06D8151
S11307707E818F8198850E944505DC01CB018987A4
S11307809A8789859A858D879E878D859E85019711
S1130790F1F78D879E8700006096CDBFDEBFDF91A5
S11307A0CF910895CF93DF931F92CDB7DEB789839E
S11307B08CE090E02CE030E0F9012281622F298165
S11307C0422F50E021E030E002C0220F331F4A954F
S11307D0E2F7262BFC01228300000F90DF91CF91DA
S11307E00895CF93DF93CDB7DEB781E00E94D203A3
S11307F00000DF91CF910895CF93DF93CDB7DEB79B
S11308006097CDBFDEBF8F87988B0E94F1038F85E1
S11308109889FC0180819181A281B381BC01CD01C1
S11308200E947405DC01CB0189839A83AB83BC836A
S113083024E535E540E554E469817A818B819C8126
S11308400E940306DC01CB018D839E83AF83B887AE
S113085020E030E040E85FE36D817E818F81988500
S11308600E94400588232CF481E090E089879A87D0
S11308703FC020E03FEF4FE757E46D817E818F81D9
S113088098850E94FE0518164CF520E030E040E201
S113089051E469817A818B819C810E940306DC0189
S11308A0CB01BC01CD010E944505DC01CB01898748
S11308B09A870FC083E590E08B879C878B859C8506
S11308C00197F1F78B879C8789859A85019789879A
S11308D09A8789859A85892B69F714C06D817E81F1
S11308E08F8198850E944505DC01CB0189879A8711
S11308F089859A858D879E878D859E850197F1F7D9
S11309008D879E8700006096CDBFDEBFDF91CF91BB
S11309100895CF93DF931F92CDB7DEB789838CE020
S113092090E02CE030E0F9012281622F2981422FEE
S113093050E021E030E002C0220F331F4A95E2F775
S1130940262BFC01228300000F90DF91CF910895A4
S1130950CF93DF93CDB7DEB780E00E948904000017
S1130960DF91CF910895CF93DF93CDB7DEB7609732
S1130970CDBFDEBF8F87988B0E94A8048F8598898E
S1130980FC0180819181A281B381BC01CD010E94CF
S11309907405DC01CB0189839A83AB83BC8324E592
S11309A035E540E554E469817A818B819C810E941C
S11309B00306DC01CB018D839E83AF83B88720E0DF
S11309C030E040E85FE36D817E818F8198850E94ED
S11309D0400588232CF481E090E089879A873FC002
S11309E020E03FEF4FE757E46D817E818F8198854A
S11309F00E94FE0518164CF520E030E040E251E478
S1130A0069817A818B819C810E940306DC01CB0180
S1130A10BC01CD010E944505DC01CB0189879A8781
S1130A200FC083E590E08B879C878B859C8501971D
S1130A30F1F78B879C8789859A85019789879A879F
S1130A4089859A85892B69F714C06D817E818F8190
S1130A5098850E944505DC01CB0189879A878985A1
S1130A609A858D879E878D859E850197F1F78D8761
S1130A709E8700006096CDBFDEBFDF91CF910895C1
S1130A800E94B10508F481E008950E94DD0588F014
S1130A909F5798F0B92F9927B751B0F0E1F0660F3E
S1130AA0771F881F991F1AF0BA95C9F714C0B1307F
S1130AB091F00E94F705B1E008950C94F705672FB3
S1130AC0782F8827B85F39F0B93FCCF386957795AE
S1130AD06795B395D9F73EF4909580957095619597
S1130AE07F4F8F4F9F4F0895E89409C097FB3EF4C2
S1130AF090958095709561957F4F8F4F9F4F992367
S1130B00A9F0F92F96E9BB279395F69587957795E4
S1130B106795B795F111F8CFFAF4BB0F11F460FFA4
S1130B201BC06F5F7F4F8F4F9F4F16C0882311F0FC
S1130B3096E911C0772321F09EE8872F762F05C010
S1130B40662371F096E8862F70E060E02AF09A95AB
S1130B50660F771F881FDAF7880F9695879597F9A0
S1130B600895990F0008550FAA0BE0E8FEEF16163A
S1130B701706E807F907C0F012161306E407F5078D
S1130B8098F0621B730B840B950B39F40A2661F001
S1130B90232B242B252B21F408950A2609F4A140A4
S1130BA0A6958FEF811D811D089557FD9058440F20
S1130BB0551F59F05F3F71F04795880F97FB991FB8
S1130BC061F09F3F79F08795089512161306140675
S1130BD0551FF2CF4695F1DF08C016161706180602
S1130BE0991FF1CF86957105610508940895E894DD
S1130BF0BB2766277727CB0197F908950E94B10593
S1130C0008F48FEF08950E9416060C9487060E943C
S1130C10790638F00E94800620F0952311F00C9498
S1130C2070060C94760611240C94F8050E94D505E0
S1130C3070F3959FC1F3950F50E0551F629FF0012B
S1130C40729FBB27F00DB11D639FAA27F00DB11D44
S1130C50AA1F649F6627B00DA11D661F829F2227CD
S1130C60B00DA11D621F739FB00DA11D621F839F54
S1130C70A00D611D221F749F3327A00D611D231F2A
S1130C80849F600D211D822F762F6A2F11249F5778
S1130C9050409AF0F1F088234AF0EE0FFF1FBB1F7B
S1130CA0661F771F881F91505040A9F79E3F51053A
S1130CB080F00C9470060C94F8055F3FE4F3983EC2
S1130CC0D4F3869577956795B795F795E7959F5FE4
S1130CD0C1F7FE2B880F911D9695879597F9089576
S1130CE097F99F6780E870E060E008959FEF80ECDB
S1130CF0089500240A94161617061806090608957E
S1130D0000240A9412161306140605060895092EE3
S1130D100394000C11F4882352F0BB0F40F4BF2B52
S1130D2011F460FF04C06F5F7F4F8F4F9F4F089592
S1070D30F894FFCF61
S9030000FC
