:100000000C9448000C9452000C9452000C94520032
:100010000C9452000C9452000C9452000C94520018
:100020000C9452000C9452000C9452000C94520008
:100030000C9452000C9452000C9452000C945200F8
:100040000C9452000C9452000C9452000C945200E8
:100050000C9452000C9452000C9452000C945200D8
:100060000C9452000C9452000C9452000C945200C8
:100070000C9452000C9452000C9452000C945200B8
:100080000C9452000C9452000C9452000C945200A8
:1000900011241FBECFEFCDBFDFE3DEBF0E94B7024A
:1000A0000C94B7060C940000CF93DF93CDB7DEB766
:1000B0000E942D050000DF91CF910895CF93DF932B
:1000C0001F92CDB7DEB789838CE090E02CE030E062
:1000D000F9012281622F2981422F50E021E030E096
:1000E00002C0220F331F4A95E2F7262BFC01228320
:1000F00000000F90DF91CF910895CF93DF93CDB79C
:10010000DEB780E00E945E000000DF91CF9108958D
:10011000CF93DF93CDB7DEB781E00E945E00000091
:10012000DF91CF910895CF93DF93CDB7DEB782E013
:100130000E945E000000DF91CF910895EF92FF9240
:100140000F931F93CF93DF93CDB7DEB7EC97CDBF5F
:10015000DEBF89AB9AAB6BAB7CAB4DAB5EAB2FAB71
:1001600038AF09AF1AAFEBAEFCAE19821A821B8210
:100170001C821D821E8289A99AA9FC018081882384
:1001800039F00E947D0089819A81019689839A8342
:100190008BA99CA9FC018081882339F00E948800EA
:1001A0008B819C8101968B839C838DA99EA9FC01E8
:1001B0008081882339F00E9493008D819E81019671
:1001C0008D839E8389819A81181619060CF07BC055
:1001D0008FA998ADCC01A0E0B0E0BC01CD010E9498
:1001E0009305DC01CB018F87988BA98BBA8B24E513
:1001F00035E540E554E46F85788989899A890E94BC
:100200002206DC01CB018B8B9C8BAD8BBE8B20E05F
:1002100030E040E85FE36B897C898D899E890E948C
:100220005F0588232CF481E090E08F8B988F3FC08E
:1002300020E03FEF4FE757E46B897C898D899E89E9
:100240000E941D0618164CF520E030E040E251E413
:100250006F85788989899A890E942206DC01CB0101
:10026000BC01CD010E946405DC01CB018F8B988F0E
:100270000FC083E590E0898F9A8F898D9A8D0197C1
:10028000F1F7898F9A8F8F89988D01978F8B988F2F
:100290008F89988D892B69F714C06B897C898D892A
:1002A0009E890E946405DC01CB018F8B988F8F891A
:1002B000988D8B8F9C8F8B8D9C8D0197F1F78B8FF9
:1002C0009C8F0E947D008B819C81181619060CF072
:1002D00093C049815A818FA998AD489F9001499F49
:1002E000300D589F300D11248BAD9CADA901481BDA
:1002F000590BCA0199231CF49195819591098BAFF3
:100300009CAF8BAD9CADCC01A0E0B0E0BC01CD01B9
:100310000E949305DC01CB018F839887A987BA8758
:1003200024E535E540E554E46F81788589859A8533
:100330000E942206DC01CB018D8F9E8FAF8FB8A368
:1003400020E030E040E85FE36D8D7E8D8F8D98A1D9
:100350000E945F0588232CF481E090E089A39AA392
:100360003FC020E03FEF4FE757E46D8D7E8D8F8DCE
:1003700098A10E941D0618164CF520E030E040E2DE
:1003800051E46F81788589859A850E942206DC0177
:10039000CB01BC01CD010E946405DC01CB0189A326
:1003A0009AA30FC083E590E08BA39CA38BA19CA193
:1003B0000197F1F78BA39CA389A19AA1019789A327
:1003C0009AA389A19AA1892B69F714C06D8D7E8D9E
:1003D0008F8D98A10E946405DC01CB0189A39AA3AB
:1003E00089A19AA18DA39EA38DA19EA10197F1F74A
:1003F0008DA39EA30E9488008D819E8118161906E8
:100400000CF0AAC089819A81181619062CF08B81EC
:100410009C81181619062CF549815A818FA998AD2F
:10042000489F9001499F300D589F300D11246B81DA
:100430007C814BAD5CAD649FC001659F900D749F46
:10044000900D1124280F391F89AD9AADF901E81BD1
:10045000F90BCF0199231CF491958195910989AFEE
:100460009AAF89AD9AADCC01A0E0B0E0BC01CD015E
:100470000E949305DC01CB018B879C87AD87BE87EB
:1004800024E535E540E554E46B857C858D859E85C6
:100490000E942206DC01CB018FA398A7A9A7BAA7C7
:1004A00020E030E040E85FE36FA178A589A59AA538
:1004B0000E945F0588232CF481E090E08BA79CA725
:1004C0003FC020E03FEF4FE757E46FA178A589A533
:1004D0009AA50E941D0618164CF520E030E040E277
:1004E00051E46B857C858D859E850E942206DC010A
:1004F000CB01BC01CD010E946405DC01CB018BA7BF
:100500009CA70FC083E590E08DA79EA78DA59EA513
:100510000197F1F78DA79EA78BA59CA501978BA7A7
:100520009CA78BA59CA5892B69F714C06FA178A502
:1005300089A59AA50E946405DC01CB018BA79CA725
:100540008BA59CA58FA798AB8FA598A90197F1F7CC
:100550008FA798AB0E9488000000EC96CDBFDEBF4D
:10056000DF91CF911F910F91FF90EF900895EF923F
:10057000FF920F931F93CF93DF93CDB7DEB72997E9
:10058000CDBFDEBF0E94540084E690E089839A8349
:1005900084EF91E08B839C8388EE93E08D839E8330
:1005A00081E08F8381E0898781E08887A981BA8192
:1005B000EB81FC812D813E81AE01475F5F4FBE0123
:1005C000685F7F4FCE0107967D018F010E949E00DC
:1005D000EDCFCF93DF93CDB7DEB780E0DF91CF9142
:1005E0000895CF93DF93CDB7DEB780E0DF91CF9151
:1005F0000895CF93DF93CDB7DEB780E0DF91CF9141
:100600000895CF93DF9300D0CDB7DEB789836A8397
:100610008A81882F90E081309105E1F08230910548
:1006200071F1892B09F03BC020E030E080E090E0E0
:10063000FC018081682F8981482F50E081E090E0A3
:1006400002C0880F991F4A95E2F780958623F90129
:10065000808325C020E030E080E090E0FC018081D4
:10066000682F8981482F50E081E090E002C0880F18
:10067000991F4A95E2F7862BF901808310C0898182
:10068000882F90E0805F9B4F2981222F30E0205FF0
:100690003B4FF90120812860FC012083000000000D
:1006A0000F900F90DF91CF910895CF93DF9300D0FB
:1006B000CDB7DEB789836A838A818823A9F020E0D9
:1006C00030E080E090E0FC018181682F8981482F33
:1006D00050E081E090E002C0880F991F4A95E2F750
:1006E000862BF901818315C020E030E080E090E0A6
:1006F000FC018181682F8981482F50E081E090E0E2
:1007000002C0880F991F4A95E2F780958623F90168
:10071000818300000F900F90DF91CF910895CF93C8
:10072000DF9300D0CDB7DEB789836A838A81882FB3
:1007300090E081309105E1F08230910571F1892BD3
:1007400009F03BC08CE090E02CE030E0F901208122
:10075000622F2981422F50E021E030E002C0220FB9
:10076000331F4A95E2F720952623FC01208325C0FC
:100770008CE090E02CE030E0F9012081622F2981AB
:10078000422F50E021E030E002C0220F331F4A9593
:10079000E2F7262BFC01208310C08981882F90E08E
:1007A00080599B4F2981222F30E020593B4FF9017E
:1007B00020812860FC012083000000000F900F9032
:1007C000DF91CF910895CF93DF9300D0CDB7DEB7FF
:1007D00089836A838A818823A9F08CE090E02CE0E9
:1007E00030E0F9012181622F2981422F50E021E080
:1007F00030E002C0220F331F4A95E2F7262BFC019E
:10080000218315C08CE090E02CE030E0F9012181DB
:10081000622F2981422F50E021E030E002C0220FF8
:10082000331F4A95E2F720952623FC01218300001F
:100830000F900F90DF91CF910895CF93DF931F9288
:10084000CDB7DEB78983698183E00E940103000090
:100850000F90DF91CF910895CF93DF931F92CDB783
:10086000DEB78983698183E00E94550300000F9001
:10087000DF91CF910895CF93DF931F92CDB7DEB76D
:100880008983698180E00E948F0300000F90DF91CF
:10089000CF910895CF93DF931F92CDB7DEB78983B1
:1008A000698180E00E94E30300000F90DF91CF9107
:1008B0000895CF93DF931F92CDB7DEB78983698107
:1008C00081E00E948F0300000F90DF91CF91089587
:1008D000CF93DF931F92CDB7DEB78983698181E023
:1008E0000E94E30300000F90DF91CF910895CF9312
:1008F000DF931F92CDB7DEB78983698182E00E94C2
:100900008F0300000F90DF91CF910895CF93DF9375
:100910001F92CDB7DEB78983698182E00E94E3032D
:1009200000000F90DF91CF910895CF93DF93CDB763
:10093000DEB72697CDBFDEBF198212C08981882F0E
:1009400090E0805F9B4F2981222F30E0205F3B4F5A
:10095000F90120812860FC01208389818F5F8983D0
:100960008981883058F31A8212C08A81882F90E0DA
:10097000805D9B4F2A81222F30E0205D3B4FF901A3
:1009800020812860FC0120838A818F5F8A838A818D
:10099000883058F31B8212C08B81882F90E0805BD7
:1009A0009B4F2B81222F30E0205B3B4FF9012081B0
:1009B0002860FC0120838B818F5F8B838B81883043
:1009C00058F31C8212C08C81882F90E080599B4F75
:1009D0002C81222F30E020593B4FF90120812860E3
:1009E000FC0120838C818F5F8C838C81883058F34D
:1009F0001D8212C08D81882F90E080579B4F2D81E2
:100A0000222F30E020573B4FF90120812860FC0164
:100A100020838D818F5F8D838D81883058F31E8276
:100A200012C08E81882F90E080559B4F2E81222FFF
:100A300030E020553B4FF90120812860FC012083E4
:100A40008E818F5F8E838E81883058F300002696CA
:100A5000CDBFDEBFDF91CF910895CF93DF93CDB7A8
:100A6000DEB70E94950480E00E942C0481E00E9481
:100A70001D0480E00E944A0481E00E943B0480E063
:100A80000E94680481E00E94590480E00E9486046C
:100A900081E00E9477040E94F1020E94F9020E9404
:100AA00057050E94E9020000DF91CF910895CF938E
:100AB000DF93CDB7DEB780E0DF91CF9108950E943C
:100AC000D00508F481E008950E94FC0588F09F5746
:100AD00098F0B92F9927B751B0F0E1F0660F771F62
:100AE000881F991F1AF0BA95C9F714C0B13091F058
:100AF0000E941606B1E008950C941606672F782F11
:100B00008827B85F39F0B93FCCF38695779567951C
:100B1000B395D9F73EF490958095709561957F4F88
:100B20008F4F9F4F0895E89409C097FB3EF490952E
:100B30008095709561957F4F8F4F9F4F9923A9F0B6
:100B4000F92F96E9BB279395F69587957795679545
:100B5000B795F111F8CFFAF4BB0F11F460FF1BC089
:100B60006F5F7F4F8F4F9F4F16C0882311F096E91C
:100B700011C0772321F09EE8872F762F05C06623CA
:100B800071F096E8862F70E060E02AF09A95660F83
:100B9000771F881FDAF7880F9695879597F908953C
:100BA000990F0008550FAA0BE0E8FEEF161617067E
:100BB000E807F907C0F012161306E407F50798F0E6
:100BC000621B730B840B950B39F40A2661F0232BFF
:100BD000242B252B21F408950A2609F4A140A6957B
:100BE0008FEF811D811D089557FD9058440F551FAB
:100BF00059F05F3F71F04795880F97FB991F61F09F
:100C00009F3F79F087950895121613061406551F15
:100C1000F2CF4695F1DF08C0161617061806991F81
:100C2000F1CF86957105610508940895E894BB2776
:100C300066277727CB0197F908950E94D00508F41D
:100C40008FEF08950E9435060C94A6060E94980620
:100C500038F00E949F0620F0952311F00C948F0627
:100C60000C94950611240C9417060E94F40570F359
:100C7000959FC1F3950F50E0551F629FF001729F41
:100C8000BB27F00DB11D639FAA27F00DB11DAA1F50
:100C9000649F6627B00DA11D661F829F2227B00D9D
:100CA000A11D621F739FB00DA11D621F839FA00D28
:100CB000611D221F749F3327A00D611D231F849F78
:100CC000600D211D822F762F6A2F11249F575040CF
:100CD0009AF0F1F088234AF0EE0FFF1FBB1F661F4A
:100CE000771F881F91505040A9F79E3F510580F013
:100CF0000C948F060C9417065F3FE4F3983ED4F3F0
:100D0000869577956795B795F795E7959F5FC1F7B6
:100D1000FE2B880F911D9695879597F9089597F961
:100D20009F6780E870E060E008959FEF80EC089591
:100D300000240A94161617061806090608950024BA
:100D40000A9412161306140605060895092E039434
:100D5000000C11F4882352F0BB0F40F4BF2B11F4A8
:100D600060FF04C06F5F7F4F8F4F9F4F0895F894CF
:020D7000FFCFB3
:00000001FF
