S010000065786572636973652E73726563BC
S11300000C9448000C9452000C9452000C9452002E
S11300100C9452000C9452000C9452000C94520014
S11300200C9452000C9452000C9452000C94520004
S11300300C9452000C9452000C9452000C945200F4
S11300400C9452000C9452000C9452000C945200E4
S11300500C9452000C9452000C9452000C945200D4
S11300600C9452000C9452000C9452000C945200C4
S11300700C9452000C9452000C9452000C945200B4
S11300800C9452000C9452000C9452000C945200A4
S113009011241FBECFEFCDBFDFE3DEBF0E94780087
S11300A00C9488080C940000CF93DF93CDB7DEB78F
S11300B00E94F0020000DF91CF910895CF93DF9367
S11300C0CDB7DEB72697CDBFDEBF89839A836B8316
S11300D07C834D835E8389819A810E94B4058D81DE
S11300E09E810E9480048B819C810E944C03F3CFEB
S11300F0CF93DF93CDB7DEB72C97CDBFDEBF0E9481
S1130100540084E690E0A0E0B0E089879A87AB874A
S1130110BC8786E990E0A0E0B0E08D839E83AF8346
S1130120B88788EC90E0A0E0B0E089839A83AB8341
S1130130BC839E01275F3F4FCE010596A901BC01F8
S1130140CE0101960E945E0080E090E02C96CDBF27
S1130150DEBFDF91CF910895CF93DF93CDB7DEB7A4
S113016080E0DF91CF910895CF93DF93CDB7DEB7D1
S113017080E0DF91CF910895CF93DF93CDB7DEB7C1
S113018080E0DF91CF910895CF93DF9300D0CDB776
S1130190DEB789836A838A81882F90E08130910554
S11301A0E1F08230910571F1892B09F03BC020E028
S11301B030E080E090E0FC018081682F8981482F45
S11301C050E081E090E002C0880F991F4A95E2F761
S11301D080958623F901808325C020E030E080E00B
S11301E090E0FC018081682F8981482F50E081E0F4
S11301F090E002C0880F991F4A95E2F7862BF90117
S1130200808310C08981882F90E0805F9B4F298173
S1130210222F30E0205F3B4FF90120812860FC0150
S11302202083000000000F900F90DF91CF9108957C
S1130230CF93DF9300D0CDB7DEB789836A838A81F9
S11302408823A9F020E030E080E090E0FC01818187
S1130250682F8981482F50E081E090E002C0880F28
S1130260991F4A95E2F7862BF901818315C020E096
S113027030E080E090E0FC018181682F8981482F83
S113028050E081E090E002C0880F991F4A95E2F7A0
S113029080958623F901818300000F900F90DF91F0
S11302A0CF910895CF93DF9300D0CDB7DEB7898384
S11302B06A838A81882F90E081309105E1F0823051
S11302C0910571F1892B09F03BC08CE090E02CE0A2
S11302D030E0F9012081622F2981422F50E021E092
S11302E030E002C0220F331F4A95E2F720952623FF
S11302F0FC01208325C08CE090E02CE030E0F90183
S11303002081622F2981422F50E021E030E002C099
S1130310220F331F4A95E2F7262BFC01208310C0DD
S11303208981882F90E080599B4F2981222F30E0CA
S113033020593B4FF90120812860FC0120830000F3
S113034000000F900F90DF91CF910895CF93DF932A
S113035000D0CDB7DEB789836A838A818823A9F068
S11303608CE090E02CE030E0F9012181622F2981BA
S1130370422F50E021E030E002C0220F331F4A95A3
S1130380E2F7262BFC01218315C08CE090E02CE0E1
S113039030E0F9012181622F2981422F50E021E0D0
S11303A030E002C0220F331F4A95E2F7209526233E
S11303B0FC01218300000F900F90DF91CF910895ED
S11303C0CF93DF931F92CDB7DEB78983698183E032
S11303D00E94C40000000F90DF91CF910895CF9345
S11303E0DF931F92CDB7DEB78983698183E00E94D2
S11303F0180100000F90DF91CF910895CF93DF9300
S11304001F92CDB7DEB78983698180E00E945201D3
S113041000000F90DF91CF910895CF93DF931F9247
S1130420CDB7DEB78983698180E00E94A601000010
S11304300F90DF91CF910895CF93DF931F92CDB7A3
S1130440DEB78983698181E00E94520100000F9028
S1130450DF91CF910895CF93DF931F92CDB7DEB78D
S11304608983698181E00E94A60100000F90DF91D9
S1130470CF910895CF93DF931F92CDB7DEB78983D1
S1130480698182E00E94520100000F90DF91CF91B8
S11304900895CF93DF931F92CDB7DEB78983698127
S11304A082E00E94A60100000F90DF91CF91089591
S11304B0CF93DF93CDB7DEB72697CDBFDEBF1982CA
S11304C012C08981882F90E0805F9B4F2981222F61
S11304D030E0205F3B4FF90120812860FC0120833C
S11304E089818F5F89838981883058F31A8212C089
S11304F08A81882F90E0805D9B4F2A81222F30E0F3
S1130500205D3B4FF90120812860FC0120838A8112
S11305108F5F8A838A81883058F31B8212C08B8153
S1130520882F90E0805B9B4F2B81222F30E0205B53
S11305303B4FF90120812860FC0120838B818F5F70
S11305408B838B81883058F31C8212C08C81882F56
S113055090E080599B4F2C81222F30E020593B4F53
S1130560F90120812860FC0120838C818F5F8C83BA
S11305708C81883058F31D8212C08D81882F90E0C1
S113058080579B4F2D81222F30E020573B4FF9019C
S113059020812860FC0120838D818F5F8D838D8174
S11305A0883058F31E8212C08E81882F90E08055C7
S11305B09B4F2E81222F30E020553B4FF9012081A3
S11305C02860FC0120838E818F5F8E838E8188302A
S11305D058F300002696CDBFDEBFDF91CF9108957A
S11305E0CF93DF93CDB7DEB70E94580280E00E941C
S11305F0EF0181E00E94E00180E00E940D0281E0B1
S11306000E94FE0180E00E942B0281E00E941C02F5
S113061080E00E94490281E00E943A020E94B400F4
S11306200E94BC000E941A030E94AC000000DF91EB
S1130630CF910895CF93DF93CDB7DEB780E0DF91FC
S1130640CF910895CF93DF931F92CDB7DEB78983FF
S11306508CE090E02CE030E0F9012281622F2981C6
S1130660422F50E021E030E002C0220F331F4A95B0
S1130670E2F7262BFC01228300000F90DF91CF913B
S11306800895CF93DF93CDB7DEB782E00E942203B3
S11306900000DF91CF910895CF93DF93CDB7DEB7FC
S11306A0A297CDBFDEBF89A39AA30E94410389A16B
S11306B09AA1FC0180819181A281B381BC01CD0109
S11306C00E946407DC01CB0189839A83AB83BC83DA
S11306D023EE38E34EE85FE369817A818B819C8164
S11306E00E941B08DC01CB018D839E83AF83B887F6
S11306F024E535E545E55FE369817A818B819C8159
S11307000E941B08DC01CB0189879A87AB87BC87D1
S113071020E030E040E85FE36D817E818F81988541
S11307200E94BE0688231CF481E08D87B2C020E0BD
S11307303FEF4FE757E469857A858B859C850E9456
S1130740160818160CF07BC020E030E04AE754E4A9
S113075069817A818B819C810E94C306DC01CB0173
S11307608E879F87A88BB98B24E535E540E554E453
S11307706E857F85888999890E941B08DC01CB01DD
S11307808A8B9B8BAC8BBD8B20E030E040E85FE331
S11307906A897B898C899D890E94BE0688232CF4F2
S11307A081E090E08E8B9F8B3FC020E03FEF4FE7CE
S11307B057E46A897B898C899D890E9416081816DA
S11307C04CF520E030E040E251E46E857F85888975
S11307D099890E941B08DC01CB01BC01CD010E9458
S11307E03507DC01CB018E8B9F8B0FC083E590E036
S11307F0888F998F888D998D0197F1F7888F998FBC
S11308008E899F8901978E8B9F8B8E899F89892BD7
S113081069F73FC06A897B898C899D890E94350765
S1130820DC01CB018E8B9F8B8E899F898A8F9B8F56
S11308308A8D9B8D0197F1F78A8F9B8F2AC020E0C8
S113084030E04FE753E46D817E818F8198850E946B
S113085016081816ACF469857A858B859C850E94E8
S11308603507DC01CB018C8F9D8F8C8D9D8D8E8FF8
S11308709F8F8E8D9F8D0197F1F78E8F9F8F0FC065
S11308806D817E818F8198850E943507DC01CB01C3
S11308908D878D8588A388A18A95F1F788A30000A8
S11308A0A296CDBFDEBFDF91CF910895CF93DF93A2
S11308B01F92CDB7DEB789838CE090E02CE030E066
S11308C0F9012281622F2981422F50E021E030E09A
S11308D002C0220F331F4A95E2F7262BFC01228324
S11308E000000F90DF91CF910895CF93DF93CDB7A0
S11308F0DEB781E00E9456040000DF91CF91089595
S1130900CF93DF93CDB7DEB7A297CDBFDEBF89A368
S11309109AA30E94750489A19AA1FC018081918106
S1130920A281B381BC01CD010E946407DC01CB012B
S113093089839A83AB83BC8323EE38E34EE85FE379
S113094069817A818B819C810E941B08DC01CB0127
S11309508D839E83AF83B88724E535E545E55FE362
S113096069817A818B819C810E941B08DC01CB0107
S113097089879A87AB87BC8720E030E040E85FE353
S11309806D817E818F8198850E94BE0688231CF428
S113099081E08D87B2C020E03FEF4FE757E46985DF
S11309A07A858B859C850E94160818160CF07BC0EE
S11309B020E030E04AE754E469817A818B819C81AC
S11309C00E94C306DC01CB018E879F87A88BB98B5D
S11309D024E535E540E554E46E857F858889998969
S11309E00E941B08DC01CB018A8B9B8BAC8BBD8BDB
S11309F020E030E040E85FE36A897B898C899D8947
S1130A000E94BE0688232CF481E090E08E8B9F8B9D
S1130A103FC020E03FEF4FE757E46A897B898C8928
S1130A209D890E94160818164CF520E030E040E23B
S1130A3051E46E857F85888999890E941B08DC01B1
S1130A40CB01BC01CD010E943507DC01CB018E8BAB
S1130A509F8B0FC083E590E0888F998F888D998D47
S1130A600197F1F7888F998F8E899F8901978E8BD3
S1130A709F8B8E899F89892B69F73FC06A897B89FF
S1130A808C899D890E943507DC01CB018E8B9F8B5D
S1130A908E899F898A8F9B8F8A8D9B8D0197F1F711
S1130AA08A8F9B8F2AC020E030E04FE753E46D81AA
S1130AB07E818F8198850E9416081816ACF469858A
S1130AC07A858B859C850E943507DC01CB018C8F50
S1130AD09D8F8C8D9D8D8E8F9F8F8E8D9F8D019779
S1130AE0F1F78E8F9F8F0FC06D817E818F819885E6
S1130AF00E943507DC01CB018D878D8588A388A1F1
S1130B008A95F1F788A30000A296CDBFDEBFDF91DE
S1130B10CF910895CF93DF931F92CDB7DEB789832A
S1130B208CE090E02CE030E0F9012281622F2981F1
S1130B30422F50E021E030E002C0220F331F4A95DB
S1130B40E2F7262BFC01228300000F90DF91CF9166
S1130B500895CF93DF93CDB7DEB780E00E948A0576
S1130B600000DF91CF910895CF93DF93CDB7DEB727
S1130B70A297CDBFDEBF89A39AA30E94A90589A12C
S1130B809AA1FC0180819181A281B381BC01CD0134
S1130B900E946407DC01CB0189839A83AB83BC8305
S1130BA023EE38E34EE85FE369817A818B819C818F
S1130BB00E941B08DC01CB018D839E83AF83B88721
S1130BC024E535E545E55FE369817A818B819C8184
S1130BD00E941B08DC01CB0189879A87AB87BC87FD
S1130BE020E030E040E85FE36D817E818F8198856D
S1130BF00E94BE0688231CF481E08D87B2C020E0E9
S1130C003FEF4FE757E469857A858B859C850E9481
S1130C10160818160CF07BC020E030E04AE754E4D4
S1130C2069817A818B819C810E94C306DC01CB019E
S1130C308E879F87A88BB98B24E535E540E554E47E
S1130C406E857F85888999890E941B08DC01CB0108
S1130C508A8B9B8BAC8BBD8B20E030E040E85FE35C
S1130C606A897B898C899D890E94BE0688232CF41D
S1130C7081E090E08E8B9F8B3FC020E03FEF4FE7F9
S1130C8057E46A897B898C899D890E941608181605
S1130C904CF520E030E040E251E46E857F858889A0
S1130CA099890E941B08DC01CB01BC01CD010E9483
S1130CB03507DC01CB018E8B9F8B0FC083E590E061
S1130CC0888F998F888D998D0197F1F7888F998FE7
S1130CD08E899F8901978E8B9F8B8E899F89892B03
S1130CE069F73FC06A897B898C899D890E94350791
S1130CF0DC01CB018E8B9F8B8E899F898A8F9B8F82
S1130D008A8D9B8D0197F1F78A8F9B8F2AC020E0F3
S1130D1030E04FE753E46D817E818F8198850E9496
S1130D2016081816ACF469857A858B859C850E9413
S1130D303507DC01CB018C8F9D8F8C8D9D8D8E8F23
S1130D409F8F8E8D9F8D0197F1F78E8F9F8F0FC090
S1130D506D817E818F8198850E943507DC01CB01EE
S1130D608D878D8588A388A18A95F1F788A30000D3
S1130D70A296CDBFDEBFDF91CF9108950E94A10757
S1130D8008F481E008950E94D7060C94DC070E94C1
S1130D90D50758F00E94CE0740F029F45F3F29F0B0
S1130DA00C94C50751110C9410080C94CB070E94A5
S1130DB0ED0768F39923B1F3552391F3951B550B74
S1130DC0BB27AA2762177307840738F09F5F5F4F1A
S1130DD0220F331F441FAA1FA9F335D00E2E3AF059
S1130DE0E0E832D091505040E695001CCAF72BD071
S1130DF0FE2F29D0660F771F881FBB1F26173707C2
S1130E004807AB07B0E809F0BB0B802DBF01FF27F3
S1130E1093585F4F3AF09E3F510578F00C94C50704
S1130E200C9410085F3FE4F3983ED4F386957795CD
S1130E306795B795F7959F5FC9F7880F911D9695AC
S1130E40879597F90895E1E0660F771F881FBB1F08
S1130E50621773078407BA0720F0621B730B840BB5
S1130E60BA0BEE1F88F7E09508950E94F50788F005
S1130E709F5798F0B92F9927B751B0F0E1F0660F5A
S1130E80771F881F991F1AF0BA95C9F714C0B1309B
S1130E9091F00E940F08B1E008950C940F08672F99
S1130EA0782F8827B85F39F0B93FCCF386957795CA
S1130EB06795B395D9F73EF49095809570956195B3
S1130EC07F4F8F4F9F4F0895E89409C097FB3EF4DE
S1130ED090958095709561957F4F8F4F9F4F992383
S1130EE0A9F0F92F96E9BB279395F6958795779501
S1130EF06795B795F111F8CFFAF4BB0F11F460FFC1
S1130F001BC06F5F7F4F8F4F9F4F16C0882311F018
S1130F1096E911C0772321F09EE8872F762F05C02C
S1130F20662371F096E8862F70E060E02AF09A95C7
S1130F30660F771F881FDAF7880F9695879597F9BC
S1130F400895990F0008550FAA0BE0E8FEEF161656
S1130F501706E807F907C0F012161306E407F507A9
S1130F6098F0621B730B840B950B39F40A2661F01D
S1130F70232B242B252B21F408950A2609F4A140C0
S1130F80A6958FEF811D811D089597F99F6780E8CD
S1130F9070E060E008959FEF80EC089500240A94C7
S1130FA01616170618060906089500240A94121640
S1130FB01306140605060895092E0394000C11F473
S1130FC0882352F0BB0F40F4BF2B11F460FF04C020
S1130FD06F5F7F4F8F4F9F4F089557FD9058440F79
S1130FE0551F59F05F3F71F04795880F97FB991F84
S1130FF061F09F3F79F08795089512161306140641
S1131000551FF2CF4695F1DF08C0161617061806CD
S1131010991FF1CF86957105610508940895E894A8
S1131020BB2766277727CB0197F908950E94A1076C
S113103008F48FEF08950E942E080C94DC070E9498
S1131040CE0738F00E94D50720F0952311F00C94B8
S1131050C5070C94CB0711240C9410080E94ED07CB
S113106070F3959FC1F3950F50E0551F629FF001F7
S1131070729FBB27F00DB11D639FAA27F00DB11D10
S1131080AA1F649F6627B00DA11D661F829F222799
S1131090B00DA11D621F739FB00DA11D621F839F20
S11310A0A00D611D221F749F3327A00D611D231FF6
S11310B0849F600D211D822F762F6A2F11249F5744
S11310C050409AF0F1F088234AF0EE0FFF1FBB1F47
S11310D0661F771F881F91505040A9F79E3F510506
S11310E080F00C94C5070C9410085F3FE4F3983E1D
S11310F0D4F3869577956795B795F795E7959F5FB0
S1131100C1F7FE2B880F911D9695879597F9089541
S1071110F894FFCF7D
S9030000FC
