:100000000C9448000C945A000C945A000C945A001A
:100010000C945A000C945A000C945A000C945A00F8
:100020000C945A000C945A000C945A000C945A00E8
:100030000C945A000C944B020C945A000C945A00E5
:100040000C945A000C945A000C945A000C945A00C8
:100050000C945A000C945A000C945A000C945A00B8
:100060000C945A000C945A000C945A000C945A00A8
:100070000C945A000C945A000C945A000C945A0098
:100080000C945A000C945A000C945A000C945A0088
:1000900011241FBECFEFCDBFDFE3DEBF28E2A0E01B
:1000A000B8E201C01D92A130B207E1F70E947B00C7
:1000B0000C9493020C940000CF93DF93CDB7DEB77E
:1000C0000E941F020000DF91CF910895CF93DF932C
:1000D0001F92CDB7DEB7898380E89AE02FEFFC014D
:1000E000248780E89AE02981FC01258700000F9091
:1000F000DF91CF910895CF93DF93CDB7DEB70E9404
:100100005C008AE00E946600FCCFCF93DF93CDB7FE
:10011000DEB780E0DF91CF910895CF93DF9300D0D9
:100120001F92CDB7DEB789839A836B8389819A81C9
:100130004B8168ED0E94350200002396CDBFDEBFE3
:10014000DF91CF910895CF93DF93CDB7DEB760E015
:1001500081E690E00E948D0080E0DF91CF910895CC
:10016000CF93DF93CDB7DEB780E0DF91CF910895D5
:10017000CF93DF9300D0CDB7DEB789836A838A81BE
:10018000882F90E081309105E1F08230910571F186
:10019000892B09F03BC084E190E024E130E0F901D3
:1001A0002081622F2981422F50E021E030E002C0FF
:1001B000220F331F4A95E2F720952623FC01208366
:1001C00025C084E190E024E130E0F9012081622F34
:1001D0002981422F50E021E030E002C0220F331F7E
:1001E0004A95E2F7262BFC01208310C08981882FD5
:1001F00090E080559B4F2981222F30E020553B4FC6
:10020000F90120812860FC012083000000000F908C
:100210000F90DF91CF910895CF93DF9300D0CDB7AA
:10022000DEB789836A838A818823A9F084E190E01C
:1002300024E130E0F9012181622F2981422F50E031
:1002400021E030E002C0220F331F4A95E2F7262B4F
:10025000FC01218315C084E190E024E130E0F90144
:100260002181622F2981422F50E021E030E002C03D
:10027000220F331F4A95E2F720952623FC012183A4
:1002800000000F900F90DF91CF910895CF93DF93EF
:100290001F92CDB7DEB78983698184E00E94B800E0
:1002A00000000F90DF91CF910895CF93DF931F92BD
:1002B000CDB7DEB78983698184E00E940C0100001C
:1002C0000F90DF91CF910895CF93DF93CDB7DEB735
:1002D0002697CDBFDEBF198212C08981882F90E09A
:1002E000805F9B4F2981222F30E0205F3B4FF90137
:1002F00020812860FC01208389818F5F8983898127
:10030000883058F31A8212C08A81882F90E0805D6D
:100310009B4F2A81222F30E0205D3B4FF901208145
:100320002860FC0120838A818F5F8A838A818830DC
:1003300058F31B8212C08B81882F90E0805B9B4F0B
:100340002B81222F30E0205B3B4FF9012081286078
:10035000FC0120838B818F5F8B838B81883058F3E6
:100360001C8212C08C81882F90E080599B4F2C8179
:10037000222F30E020593B4FF90120812860FC01F9
:1003800020838C818F5F8C838C81883058F31D8211
:1003900012C08D81882F90E080579B4F2D81222F96
:1003A00030E020573B4FF90120812860FC01208379
:1003B0008D818F5F8D838D81883058F31E8212C0AE
:1003C0008E81882F90E080559B4F2E81222F30E028
:1003D00020553B4FF90120812860FC0120838E814C
:1003E0008F5F8E838E81883058F300002696CDBFB4
:1003F000DEBFDF91CF910895CF93DF93CDB7DEB706
:1004000081E00E94550181E00E94460180EE95E066
:1004100020EE35E0F90125812160FC0125830E9451
:100420007A020000DF91CF910895CF93DF93CDB78B
:10043000DEB70E9439020000DF91CF910895CF937B
:10044000DF93CDB7DEB70E9464010E94A3000E9433
:10045000FC010E9415020E94B0000E9472020E94DC
:1004600085000000DF91CF910895FC0164BF4083B7
:100470000895CF93DF93CDB7DEB780E99AE027E008
:10048000FC01218380E99AE021E0FC01208380E0E7
:10049000DF91CF9108951F920F9200903F000F922D
:1004A00011242F938F939F93EF93FF93CF93DF9319
:1004B000CDB7DEB780E99AE021E0FC012683809188
:1004C00000288F5F809300280000DF91CF91FF917B
:1004D000EF919F918F912F910F9000923F000F907D
:1004E0001F901895CF93DF93CDB7DEB780E0DF91F3
:1004F000CF910895CF93DF93CDB7DEB780E89AE030
:100500002FEF30E0FC012487358780E89AE027E16F
:10051000FC01218380E89AE021E0FC01208380E057
:0A052000DF91CF910895F894FFCF0A
:00000001FF
