S01100007175657374696F6E342E7372656367
S11300000C9448000C9452000C9452000C9452002E
S11300100C9452000C9452000C9452000C94520014
S11300200C9452000C9452000C9452000C94520004
S11300300C9452000C9452000C9452000C945200F4
S11300400C9452000C9452000C9452000C945200E4
S11300500C9452000C9452000C9452000C945200D4
S11300600C9452000C9452000C9452000C945200C4
S11300700C9452000C9452000C9452000C945200B4
S11300800C9452000C9452000C9452000C945200A4
S113009011241FBECFEFCDBFDFE3DEBF0E945E00A1
S11300A00C9428020C940000CF93DF93CDB7DEB7F5
S11300B00E940E020000DF91CF910895CF93DF9349
S11300C01F92CDB7DEB70E9454000E943B0121E08D
S11300D0892B09F420E02983F8CFCF93DF9300D054
S11300E000D0CDB7DEB78B836C838B81882F90E0F3
S11300F0805F9B4F89839A838C81813059F48981F5
S11301009A81FC018081282F286089819A81FC01D1
S113011020830DC08C81882351F489819A81FC014C
S11301208081282F277F89819A81FC012083000008
S11301302496CDBFDEBFDF91CF910895CF93DF9397
S113014000D0CDB7DEB789836A838A81882F90E097
S113015081309105E1F08230910571F1892B09F02C
S11301603BC020E030E080E090E0FC018081682F1B
S11301708981482F50E081E090E002C0880F991FE8
S11301804A95E2F780958623F901808325C020E013
S113019030E080E090E0FC018081682F8981482F65
S11301A050E081E090E002C0880F991F4A95E2F781
S11301B0862BF901808310C08981882F90E0805FAD
S11301C09B4F2981222F30E0205F3B4FF901208192
S11301D02860FC012083000000000F900F90DF9145
S11301E0CF910895CF93DF931F92CDB7DEB7898364
S11301F080E090E0FC018281282F30E08981482F43
S113020050E081E090E002C0880F991F4A95E2F720
S11302108223932321E0892B09F420E0822F0F907D
S1130220DF91CF910895CF93DF931F92CDB7DEB7BF
S11302308983698182E00E946D0000000F90DF9144
S1130240CF910895CF93DF931F92CDB7DEB7898303
S1130250698182E00E949E0000000F90DF91CF919F
S11302600895CF93DF93CDB7DEB782E00E94F2000A
S1130270DF91CF910895CF93DF93CDB7DEB7279762
S1130280CDBFDEBF80E00E94220182E291E089833B
S11302909A8380E00E94130183E191E08B839C8325
S11302A00E9431018D8381E391E08E839F838D8150
S11302B02796CDBFDEBFDF91CF910895CF93DF9313
S11302C0CDB7DEB780E0DF91CF910895CF93DF9370
S11302D0CDB7DEB780E0DF91CF910895CF93DF9360
S11302E0CDB7DEB780E0DF91CF910895CF93DF9350
S11302F0CDB7DEB72697CDBFDEBF198212C0898184
S1130300882F90E0805F9B4F2981222F30E0205F6F
S11303103B4FF90120812860FC01208389818F5F94
S113032089838981883058F31A8212C08A81882F80
S113033090E0805D9B4F2A81222F30E0205D3B4F6F
S1130340F90120812860FC0120838A818F5F8A83E0
S11303508A81883058F31B8212C08B81882F90E0E9
S1130360805B9B4F2B81222F30E0205B3B4FF901B8
S113037020812860FC0120838B818F5F8B838B819C
S1130380883058F31C8212C08C81882F90E08059E9
S11303909B4F2C81222F30E020593B4FF9012081C3
S11303A02860FC0120838C818F5F8C838C81883052
S11303B058F31D8212C08D81882F90E080579B4F87
S11303C02D81222F30E020573B4FF90120812860F6
S11303D0FC0120838D818F5F8D838D81883058F35C
S11303E01E8212C08E81882F90E080559B4F2E81F3
S11303F0222F30E020553B4FF90120812860FC0179
S113040020838E818F5F8E838E81883058F3000025
S11304102696CDBFDEBFDF91CF910895CF93DF93B2
S1130420CDB7DEB70E9476010E9466010E946E017C
S11304300E9420020E945E010000DF91CF91089586
S1130440CF93DF93CDB7DEB780E0DF91CF910895EE
S1070450F894FFCF4A
S9030000FC
