:100000000C9448000C9452000C9452000C94520032
:100010000C9452000C9452000C9452000C94520018
:100020000C9452000C9452000C9452000C94520008
:100030000C9452000C9452000C9452000C945200F8
:100040000C9452000C9452000C9452000C945200E8
:100050000C9452000C9452000C9452000C945200D8
:100060000C9452000C9452000C9452000C945200C8
:100070000C9452000C9452000C9452000C945200B8
:100080000C9452000C9452000C9452000C945200A8
:1000900011241FBECFEFCDBFDFE3DEBF0E945D00A6
:1000A0000C94F6000C9400000E94CC000895E0E847
:1000B000FAE09FEF9487858708950E94540082E3B9
:1000C0000E945700FCCF80E0089540E068ED81E693
:1000D00090E00E94EB0040E868ED80E690E00E942E
:1000E000EB0080E0089580E0089580E008C0E82FEC
:1000F000F0E0E05FFB4F9081986090838F5F8830E5
:10010000B0F380E008C0E82FF0E0E05DFB4F9081A5
:10011000986090838F5F8830B0F380E008C0E82F4C
:10012000F0E0E05BFB4F9081986090838F5F8830B8
:10013000B0F380E008C0E82FF0E0E059FB4F908179
:10014000986090838F5F8830B0F380E008C0E82F1C
:10015000F0E0E057FB4F9081986090838F5F88308C
:10016000B0F380E008C0E82FF0E0E055FB4F90814D
:10017000986090838F5F8830B0F3089585B3806175
:1001800085BB84B3806184BBE0EEF5E0858181604E
:1001900085830E94F10008950E94750081B18F7BD4
:1001A00081B980B1806480B985B3877F85BB84B312
:1001B000886084BB85B38F7D85BB84B3806284BB3C
:1001C0000E9465000E94BE000E9473000E94EF0022
:1001D0000E9463000895FC0164BF4083089580E09D
:1001E000089587E18093810A80E00895F894FFCF15
:00000001FF
