S0180000696E737472756374696F6E5F70726F6A2E7372656330
S11300000C9448000C9452000C9452000C9452002E
S11300100C9452000C9452000C9452000C94520014
S11300200C9452000C9452000C9452000C94520004
S11300300C9452000C9452000C9452000C945200F4
S11300400C9452000C9452000C9452000C945200E4
S11300500C9452000C9452000C9452000C945200D4
S11300600C9452000C9452000C9452000C945200C4
S11300700C9452000C9452000C9452000C945200B4
S11300800C9452000C9452000C9452000C945200A4
S113009011241FBECFEFCDBFDFE3DEBF0E945700A8
S11300A00C94F9000C9400000E94AF0008950E9483
S11300B0540021E041E061E081E00E94D400F9CFE6
S11300C080E0089580E0089580E0089580E008C00D
S11300D0E82FF0E0E05FFB4F9081986090838F5FA2
S11300E08830B0F380E008C0E82FF0E0E05DFB4F1B
S11300F09081986090838F5F8830B0F380E008C06F
S1130100E82FF0E0E05BFB4F9081986090838F5F75
S11301108830B0F380E008C0E82FF0E0E059FB4FEE
S11301209081986090838F5F8830B0F380E008C03E
S1130130E82FF0E0E057FB4F9081986090838F5F49
S11301408830B0F380E008C0E82FF0E0E055FB4FC2
S11301509081986090838F5F8830B0F308950E94F7
S1130160660081B1877F81B980B1886080B98DB123
S11301708E7F8DB98CB181608CB98DB18D7F8DB935
S11301808CB182608CB98DB18B7F8DB98CB1846058
S11301908CB90E9462000E9464000E94D2000E94F6
S11301A06000089580E00895882321F08DB1816076
S11301B08DB903C08DB18E7F8DB9662321F08DB1C9
S11301C082608DB903C08DB18D7F8DB9442321F038
S11301D08DB184608DB903C08DB18B7F8DB922231D
S11301E021F081B1886081B9089581B1877F81B997
S10901F00895F894FFCF0E
S9030000FC
