S013000041737369676E6D656E74322E73726563C6
S11300000C9448000C9452000C9452000C9452002E
S11300100C9452000C9452000C9452000C94520014
S11300200C9452000C9452000C9452000C94520004
S11300300C9452000C9452000C9452000C945200F4
S11300400C9452000C9452000C9452000C945200E4
S11300500C9452000C9452000C9452000C945200D4
S11300600C9452000C9452000C9452000C945200C4
S11300700C9452000C9452000C9452000C945200B4
S11300800C9452000C9452000C9452000C945200A4
S113009011241FBECFEFCDBFDFE3DEBF0E945E00A1
S11300A00C9492030C940000CF93DF93CDB7DEB78A
S11300B00E94D4020000DF91CF910895EF92FF9245
S11300C00F931F93CF93DF93CDB7DEB72897CDBFA0
S11300D0DEBF0E94540081E090E0A0E0B0E089839C
S11300E09A83AB83BC8381E08D831E821F82188632
S11300F089819A81AB81BC817C018D0128854E81E7
S11301006F818D810E94790380E090E02896CDBFB5
S1130110DEBFDF91CF911F910F91FF90EF90089573
S1130120CF93DF93CDB7DEB780E0DF91CF91089511
S1130130CF93DF93CDB7DEB780E0DF91CF91089501
S1130140CF93DF93CDB7DEB780E0DF91CF910895F1
S1130150CF93DF9300D0CDB7DEB789836A838A81DA
S1130160882F90E081309105E1F08230910571F1A2
S1130170892B09F03BC020E030E080E090E0FC01F6
S11301808081682F8981482F50E081E090E002C08F
S1130190880F991F4A95E2F780958623F901808399
S11301A025C020E030E080E090E0FC018081682FF1
S11301B08981482F50E081E090E002C0880F991FA8
S11301C04A95E2F7862BF901808310C08981882F34
S11301D090E0805F9B4F2981222F30E0205F3B4FCE
S11301E0F90120812860FC012083000000000F90A9
S11301F00F90DF91CF910895CF93DF9300D0CDB7C7
S1130200DEB789836A838A818823A9F020E030E0FD
S113021080E090E0FC018181682F8981482F50E0C3
S113022081E090E002C0880F991F4A95E2F7862B7F
S1130230F901818315C020E030E080E090E0FC010A
S11302408181682F8981482F50E081E090E002C0CD
S1130250880F991F4A95E2F780958623F9018183D7
S113026000000F900F90DF91CF910895CF93DF930B
S113027000D0CDB7DEB789836A838A81882F90E066
S113028081309105E1F08230910571F1892B09F0FB
S11302903BC08CE090E02CE030E0F9012081622F3B
S11302A02981422F50E021E030E002C0220F331FA9
S11302B04A95E2F720952623FC01208325C08CE093
S11302C090E02CE030E0F9012081622F2981422F57
S11302D050E021E030E002C0220F331F4A95E2F7DC
S11302E0262BFC01208310C08981882F90E080593F
S11302F09B4F2981222F30E020593B4FF901208167
S11303002860FC012083000000000F900F90DF9113
S1130310CF910895CF93DF9300D0CDB7DEB7898313
S11303206A838A818823A9F08CE090E02CE030E095
S1130330F9012181622F2981422F50E021E030E030
S113034002C0220F331F4A95E2F7262BFC012183BA
S113035015C08CE090E02CE030E0F9012181622F9F
S11303602981422F50E021E030E002C0220F331FE8
S11303704A95E2F720952623FC01218300000F9083
S11303800F90DF91CF910895CF93DF931F92CDB754
S1130390DEB78983698183E00E94A80000000F9082
S11303A0DF91CF910895CF93DF931F92CDB7DEB73E
S11303B08983698183E00E94FC0000000F90DF9133
S11303C0CF910895CF93DF931F92CDB7DEB7898382
S11303D0698180E00E94360100000F90DF91CF9187
S11303E00895CF93DF931F92CDB7DEB789836981D8
S11303F080E00E948A0100000F90DF91CF91089560
S1130400CF93DF931F92CDB7DEB78983698181E0F3
S11304100E94360100000F90DF91CF910895CF9391
S1130420DF931F92CDB7DEB78983698181E00E9493
S11304308A0100000F90DF91CF910895CF93DF934D
S11304401F92CDB7DEB78983698182E00E943601AD
S113045000000F90DF91CF910895CF93DF931F9207
S1130460CDB7DEB78983698182E00E948A010000EA
S11304700F90DF91CF910895CF93DF93CDB7DEB77F
S11304802697CDBFDEBF198212C08981882F90E0E4
S1130490805F9B4F2981222F30E0205F3B4FF90181
S11304A020812860FC01208389818F5F8983898171
S11304B0883058F31A8212C08A81882F90E0805DB8
S11304C09B4F2A81222F30E0205D3B4FF901208190
S11304D02860FC0120838A818F5F8A838A81883027
S11304E058F31B8212C08B81882F90E0805B9B4F56
S11304F02B81222F30E0205B3B4FF90120812860C3
S1130500FC0120838B818F5F8B838B81883058F330
S11305101C8212C08C81882F90E080599B4F2C81C3
S1130520222F30E020593B4FF90120812860FC0143
S113053020838C818F5F8C838C81883058F31D825B
S113054012C08D81882F90E080579B4F2D81222FE0
S113055030E020573B4FF90120812860FC012083C3
S11305608D818F5F8D838D81883058F31E8212C0F8
S11305708E81882F90E080559B4F2E81222F30E072
S113058020553B4FF90120812860FC0120838E8196
S11305908F5F8E838E81883058F300002696CDBFFE
S11305A0DEBFDF91CF910895CF93DF93CDB7DEB750
S11305B00E943C0280E00E94D30181E00E94C401B9
S11305C080E00E94F10181E00E94E20180E00E944B
S11305D00F0281E00E94000280E00E942D0281E06F
S11305E00E941E020E9498000E94A0000E94FE0227
S11305F00E9490000000DF91CF910895CF93DF9384
S1130600CDB7DEB780E0DF91CF910895CF93DF932C
S113061000D0CDB7DEB789836A838A818823A9F0A5
S11306208CE090E02CE030E0F9012181622F2981F7
S1130630422F50E021E030E002C0220F331F4A95E0
S1130640E2F7262BFC01218315C08CE090E02CE01E
S113065030E0F9012181622F2981422F50E021E00D
S113066030E002C0220F331F4A95E2F7209526237B
S1130670FC01218300000F900F90DF91CF9108952A
S1130680CF93DF931F92CDB7DEB789838CE090E0E0
S11306902CE030E0F9012281622F2981422F50E0C1
S11306A021E030E002C0220F331F4A95E2F7262BE7
S11306B0FC01228300000F90DF91CF910895CF9326
S11306C0DF931F92CDB7DEB78983698180E00E94F2
S11306D0060300000F90DF91CF910895CF93DF932D
S11306E0CDB7DEB780E00E9440030000DF91CF91D8
S11306F00895EF92FF920F931F93CF93DF93CDB79B
S1130700DEB72897CDBFDEBF89836A834B832C83F2
S1130710ED82FE820F83188789810E945F030E9405
S10B07206E03FACFF894FFCF39
S9030000FC
