:100000000C9448000C9452000C9452000C94520032
:100010000C9452000C9452000C9452000C94520018
:100020000C9452000C9452000C9452000C94520008
:100030000C9452000C9452000C9452000C945200F8
:100040000C9452000C9452000C9452000C945200E8
:100050000C9452000C9452000C9452000C945200D8
:100060000C9452000C9452000C9452000C945200C8
:100070000C9452000C9452000C9452000C945200B8
:100080000C9452000C9452000C9452000C945200A8
:1000900011241FBECFEFCDBFDFE3DEBF0E9486007D
:1000A0000C940F050C940000CF93DF93CDB7DEB70F
:1000B0000E94A4030000DF91CF910895CF93DF93B6
:1000C00000D01F92CDB7DEB789836A834B8380E06F
:1000D0009AE02981222F30E0FC0120A731A780E09F
:1000E0009AE02A81222F30E0FC0122A733A780E08A
:1000F0009AE02B81222F30E0FC0124A735A70000D5
:100100002396CDBFDEBFDF91CF910895CF93DF93CC
:10011000CDB7DEB76197CDBFDEBF0E945400198214
:1001200093C01A828AC01B8281C08B81482F50E005
:100130008A81282F30E08981882F90E0B9010E94C0
:100140005E0080E090E0A0E2B1E48C839D83AE830A
:10015000BF8324E535E540E554E46C817D818E81E3
:100160009F810E947A04DC01CB0188879987AA8746
:10017000BB8720E030E040E85FE3688579858A85C9
:100180009B850E94F40388232CF481E090E08C8707
:100190009D873FC020E03FEF4FE757E468857985B2
:1001A0008A859B850E94750418164CF520E030E086
:1001B00040E251E46C817D818E819F810E947A04AE
:1001C000DC01CB01BC01CD010E94F903DC01CB01B4
:1001D0008C879D870FC083E590E08E879F878E85F3
:1001E0009F850197F1F78E879F878C859D85019765
:1001F0008C879D878C859D85892B69F714C06885C0
:1002000079858A859B850E94F903DC01CB018C8767
:100210009D878C859D85888B998B88899989019785
:10022000F1F7888B998B8B818F5F8B838B818F3FCD
:1002300009F07BCF8A818F5F8A838A818F3F09F0A3
:1002400072CF89818F5F898389818F3F09F069CF60
:1002500066CFCF93DF93CDB7DEB780E0DF91CF914C
:100260000895CF93DF93CDB7DEB780E0DF91CF91D4
:100270000895CF93DF93CDB7DEB780E0DF91CF91C4
:100280000895CF93DF9300D0CDB7DEB789836A831B
:100290008A81882F90E081309105E1F082309105CC
:1002A00071F1892B09F03BC020E030E080E090E064
:1002B000FC018081682F8981482F50E081E090E027
:1002C00002C0880F991F4A95E2F780958623F901AD
:1002D000808325C020E030E080E090E0FC01808158
:1002E000682F8981482F50E081E090E002C0880F9C
:1002F000991F4A95E2F7862BF901808310C0898106
:10030000882F90E0805F9B4F2981222F30E0205F73
:100310003B4FF90120812860FC0120830000000090
:100320000F900F90DF91CF910895CF93DF9300D07E
:10033000CDB7DEB789836A838A818823A9F020E05C
:1003400030E080E090E0FC018181682F8981482FB6
:1003500050E081E090E002C0880F991F4A95E2F7D3
:10036000862BF901818315C020E030E080E090E029
:10037000FC018181682F8981482F50E081E090E065
:1003800002C0880F991F4A95E2F780958623F901EC
:10039000818300000F900F90DF91CF910895CF934C
:1003A000DF9300D0CDB7DEB789836A838A81882F37
:1003B00090E081309105E1F08230910571F1892B57
:1003C00009F03BC08CE090E02CE030E0F9012081A6
:1003D000622F2981422F50E021E030E002C0220F3D
:1003E000331F4A95E2F720952623FC01208325C080
:1003F0008CE090E02CE030E0F9012081622F29812F
:10040000422F50E021E030E002C0220F331F4A9516
:10041000E2F7262BFC01208310C08981882F90E011
:1004200080599B4F2981222F30E020593B4FF90101
:1004300020812860FC012083000000000F900F90B5
:10044000DF91CF910895CF93DF9300D0CDB7DEB782
:1004500089836A838A818823A9F08CE090E02CE06C
:1004600030E0F9012181622F2981422F50E021E003
:1004700030E002C0220F331F4A95E2F7262BFC0121
:10048000218315C08CE090E02CE030E0F90121815F
:10049000622F2981422F50E021E030E002C0220F7C
:1004A000331F4A95E2F720952623FC0121830000A3
:1004B0000F900F90DF91CF910895CF93DF931F920C
:1004C000CDB7DEB78983698183E00E9441010000D6
:1004D0000F90DF91CF910895CF93DF931F92CDB707
:1004E000DEB78983698183E00E94950100000F9047
:1004F000DF91CF910895CF93DF931F92CDB7DEB7F1
:100500008983698180E00E94CF0100000F90DF9114
:10051000CF910895CF93DF931F92CDB7DEB7898334
:10052000698180E00E94230200000F90DF91CF914B
:100530000895CF93DF931F92CDB7DEB7898369818A
:1005400081E00E94CF0100000F90DF91CF910895CC
:10055000CF93DF931F92CDB7DEB78983698181E0A6
:100560000E94230200000F90DF91CF910895CF9356
:10057000DF931F92CDB7DEB78983698182E00E9445
:10058000CF0100000F90DF91CF910895CF93DF93BB
:100590001F92CDB7DEB78983698182E00E94230272
:1005A00000000F90DF91CF910895CF93DF93CDB7E7
:1005B000DEB72697CDBFDEBF198212C08981882F92
:1005C00090E0805F9B4F2981222F30E0205F3B4FDE
:1005D000F90120812860FC01208389818F5F898354
:1005E0008981883058F31A8212C08A81882F90E05E
:1005F000805D9B4F2A81222F30E0205D3B4FF90127
:1006000020812860FC0120838A818F5F8A838A8110
:10061000883058F31B8212C08B81882F90E0805B5A
:100620009B4F2B81222F30E0205B3B4FF901208133
:100630002860FC0120838B818F5F8B838B818830C6
:1006400058F31C8212C08C81882F90E080599B4FF8
:100650002C81222F30E020593B4FF9012081286066
:10066000FC0120838C818F5F8C838C81883058F3D0
:100670001D8212C08D81882F90E080579B4F2D8165
:10068000222F30E020573B4FF90120812860FC01E8
:1006900020838D818F5F8D838D81883058F31E82FA
:1006A00012C08E81882F90E080559B4F2E81222F83
:1006B00030E020553B4FF90120812860FC01208368
:1006C0008E818F5F8E838E81883058F3000026964E
:1006D000CDBFDEBFDF91CF910895CF93DF93CDB72C
:1006E000DEB780E00E948A0281E00E947B0280EEF9
:1006F00095E020EE35E0F90124812360FC0124839C
:1007000080E00E94A80281E00E94990280EE95E0BC
:1007100020EE35E0F90124812360FC01248380E090
:100720000E94C60281E00E94B70280EE95E020EEB2
:1007300035E0F90124812360FC0124830E94C60373
:100740000000DF91CF910895CF93DF93CDB7DEB74F
:100750000E94D50280E00E946C0281E00E945D024E
:100760000E9431010E946D030E9439010E94BE0364
:100770000E9429010000DF91CF910895CF93DF936C
:10078000CDB7DEB780E0DF91CF910895CF93DF93AF
:10079000CDB7DEB780E09AE02FEF30E0FC0120A774
:1007A00031A780E09AE02FEF30E0FC0122A733A7C9
:1007B00080E09AE02FEF30E0FC0124A735A780E02D
:1007C0009AE023E7FC01218380E09AE02FEF30E0FC
:1007D000FC0126A337A380E09AE021E0FC012083FE
:1007E00080E0DF91CF9108950E94280408F481E011
:1007F00008950E94540488F09F5798F0B92F9927C4
:10080000B751B0F0E1F0660F771F881F991F1AF0FB
:10081000BA95C9F714C0B13091F00E946E04B1E0EE
:1008200008950C946E04672F782F8827B85F39F0ED
:10083000B93FCCF3869577956795B395D9F73EF494
:1008400090958095709561957F4F8F4F9F4F08953C
:10085000990F0008550FAA0BE0E8FEEF16161706D1
:10086000E807F907C0F012161306E407F50798F039
:10087000621B730B840B950B39F40A2661F0232B52
:10088000242B252B21F408950A2609F4A140A695CE
:100890008FEF811D811D089557FD9058440F551FFE
:1008A00059F05F3F71F04795880F97FB991F61F0F2
:1008B0009F3F79F087950895121613061406551F69
:1008C000F2CF4695F1DF08C0161617061806991FD5
:1008D000F1CF86957105610508940895E894BB27CA
:1008E00066277727CB0197F908950E94280408F41A
:1008F0008FEF08950E948D040C94FE040E94F00472
:1009000038F00E94F70420F0952311F00C94E704CE
:100910000C94ED0411240C946F040E944C0470F3A9
:10092000959FC1F3950F50E0551F629FF001729F94
:10093000BB27F00DB11D639FAA27F00DB11DAA1FA3
:10094000649F6627B00DA11D661F829F2227B00DF0
:10095000A11D621F739FB00DA11D621F839FA00D7B
:10096000611D221F749F3327A00D611D231F849FCB
:10097000600D211D822F762F6A2F11249F57504022
:100980009AF0F1F088234AF0EE0FFF1FBB1F661F9D
:10099000771F881F91505040A9F79E3F510580F066
:1009A0000C94E7040C946F045F3FE4F3983ED4F397
:1009B000869577956795B795F795E7959F5FC1F70A
:1009C000FE2B880F911D9695879597F9089597F9B5
:1009D0009F6780E870E060E008959FEF80EC0895E5
:1009E00000240A941616170618060906089500240E
:1009F0000A9412161306140605060895092E039488
:100A0000000C11F4882352F0BB0F40F4BF2B11F4FB
:100A100060FF04C06F5F7F4F8F4F9F4F0895F89422
:020A2000FFCF06
:00000001FF
